:020000040800F2
:10000000882F02200D0200085B8E0008D37C0008B8
:10001000598E0008B107000889BE000800000000E2
:10002000000000000000000000000000D58E000865
:10003000E909000800000000818E0008D78E000842
:1000400027020008270200082702000827020008EC
:1000500027020008270200081D0B000827020008DD
:1000600027020008270200082702000827020008CC
:1000700027020008270200082702000827020008BC
:10008000270200082702000871040008050900087B
:10009000B5070008C107000827020008270200086A
:1000A000270200082702000827020008270200088C
:1000B000270200082702000827020008270200087C
:1000C000270200082702000827020008270200086C
:1000D000270200082702000827020008270200085C
:1000E000270200082702000827020008270200084C
:1000F000270200082702000827020008270200083C
:100100002702000827020008CD90000827020008F7
:10011000270200082702000849910008959100086D
:10012000DD0900082702000827020008270200084E
:1001300027020008ED09000827020008270200082E
:1001400027020008270200082702000827020008EB
:1001500027020008270200082702000827020008DB
:100160002702000827020008698E00085D8E00083B
:1001700027020008758E0008270200080000000012
:1001800027020008270200082702000827020008AB
:10019000270200082702000827020008270200089B
:1001A000270200082702000827020008270200088B
:1001B000270200082702000827020008E17C000847
:1001C000D57C000827020008000000002702000874
:1001D000270200082702000827020008270200085B
:1001E000270200082702000827020008270200084B
:1001F0002702000827020008DFF80CD000F0B6F84C
:100200000048004779150108882F022006488047DA
:1002100006480047FEE7FEE7FEE7FEE7FEE7FEE7EB
:10022000FEE7FEE7FEE7FEE76D900008F901000833
:100230002DE9F05F0546002092469B46884606461B
:10024000814640241BE0284641464746224600F0AE
:100250007DF853465A46C01A914110D311461846AC
:10026000224600F064F82D1A67EB01084F4622463B
:100270000120002100F05BF817EB00094E41201E21
:10028000A4F10104DFDC484631462A464346BDE876
:10029000F09F40EA01039B0703D009E008C9121F41
:1002A00008C0042AFAD203E011F8013B00F8013B30
:1002B000521EF9D27047D2B201E000F8012B491E5C
:1002C000FBD270470022F6E710B513460A460446F3
:1002D0001946FFF7F0FF204610BD421C10F8011B25
:1002E0000029FBD1801A704730B504460020034630
:1002F00000E05B1C934203D2E05CCD5C401BF8D075
:1003000030BD30B50B46014600202022012409E013
:1003100021FA02F59D4205D303FA02F5491B04FABE
:1003200002F52844151EA2F10102F1DC30BD202A9D
:1003300004DB203A00FA02F1002070479140C2F13C
:10034000200320FA03F3194390407047202A04DB6E
:10035000203A21FA02F00021704721FA02F3D0403E
:10036000C2F120029140084319467047064C074DE0
:1003700006E0E06840F0010394E807009847103475
:10038000AC42F6D3FFF73CFF683E0108883E010807
:1003900070B58C1810F8015B15F0070301D110F847
:1003A000013B2A1106D110F8012B03E010F8016B74
:1003B00001F8016B5B1EF9D12B0705D40023521EF7
:1003C0000DD401F8013BFAE710F8013BCB1A921C5F
:1003D00003E013F8015B01F8015B521EF9D5A1425D
:1003E000D8D3002070BD10B50246806B016C11F0AF
:1003F000500F05D0806BC16C1046BDE81040084717
:10040000016C41F40071016401688A6812F0405F78
:1004100004BF8269002A17D1CA6A12F4700F1CBF88
:100420008A6812F4806F0FD14A6822F020024A6075
:10043000016C21F480710164016C11F4805F03D1BF
:10044000016C41F00101016400F0D8FC10BD10B551
:10045000806B40210164416C41F00401416400F073
:1004600034FD10BD10B5806B00F02EFD10BD0000F6
:10047000014800F02BBD00003474002070B588B036
:10048000082006268DF804000123274852214FF446
:100490007A74009402AD01AA04F062FC2248522151
:1004A00033462A46009404F03DFB14208DF80400E6
:1004B0001D48062501230094522104AE01AA04F030
:1004C0004FFC194852212B463246009404F02AFB77
:1004D0001A208DF8040014480225012300945221AB
:1004E00006AE01AA04F03CFC0F4852212B463246CE
:1004F000009404F017FB0D48BDF818108181BDF879
:1005000008100180BDF81010C180BDF80A104180AC
:10051000BDF812100181BDF80C108180BDF81410D7
:10052000418108B070BD0000DC7B002050730020CA
:100530002DE9F04F4FF000084FF0070B0320012189
:1005400060F30706022261F3070568F30F2668F3DC
:10055000070762F30F2568F3174668F3174568F33A
:100560000F2760F31F6668F317476BF31F650120C1
:1005700087B068F3070961F3070A02F005FA40F251
:100580008A2002F001FA8DF818B002238348522124
:100590004FF47A748DF8198006AA009404F0E0FBF9
:1005A0003D208DF818007D48022352218DF81980D6
:1005B00006AA009404F0D4FB142002F0E5F93E20D2
:1005C0008DF818007548022352218DF8198006AA6B
:1005D000009404F0C5FB40208DF818006F480223FA
:1005E00052218DF8198006AA009404F0B9FB390C49
:1005F00000943A0E8900C7F3072807F0FF0B41EA81
:1006000002114BEA480008433B218DF8181040EADC
:10061000CA108DF8190061480223522106AA04F07D
:100620009FFB5F48BBF1010F0CBFB7EE000A9FEDC7
:100630005D0A80ED000AB8F1010F0CBF9FED5A0A68
:10064000B3EE000A80ED010A07218DF81010012099
:100650008DF81100514802235221009404AA04F09D
:100660007FFB280A0094290C800040EA41100821F1
:100670008DF8101028438DF81100484802235221AC
:1006800004AA04F06DFB300A0094F20009218DF8F1
:100690000C1042EA401040EA15608DF80D003F480A
:1006A0000223522103AA04F05BFB310E0094300CAC
:1006B00040EAC1000A218DF808108DF809000223D4
:1006C0003648522102AA04F04BFB0B208DF804009F
:1006D0003248022352218DF8059001AA009404F0BB
:1006E0003FFB07218DF8041000208DF805002B48F2
:1006F00002235221009401AA04F032FB36208DF827
:1007000004000125254852212B4602AE009401AA7F
:1007100004F026FB214852212B463246009404F077
:1007200001FA22489DF8081001F001020270C1F39D
:1007300040034370C1F3800C80F802C0C1F3C001D4
:10074000C1703F218DF8041080208DF80500022330
:100750001248522101AA009404F002FB07218DF8EF
:10076000041000208DF805000C480223522100944B
:1007700001AA04F0F5FA3D208DF804000C21074889
:1007800002238DF805105221009401AA04F0E8FA22
:1007900007B01420BDE8F04F02F0F6B8DC7B002073
:1007A000F00300200000C84200006144040400205F
:1007B000FEE70000014801F045BA00005475002032
:1007C000014801F03FBA0000547500202DE9F047C0
:1007D0004A4C012600254FF4C04021460E27656192
:1007E0004FF47E48C4E90656C4E90005C4E9028511
:1007F000256101F17800C4E9086701F05BF8C4E9FC
:1008000005654FF44A40E661C4E90005C4E9028584
:1008100021462561C4E9086701F1780001F04AF832
:100820000221E661C4E9051538032146C4E9000543
:10083000C4E90285256101F17800C4E9086701F087
:1008400039F80320E661C4E905054FF6E07AC4F8FB
:1008500008A0C4E90085C4E903562146C4E9086735
:1008600001F1780001F026F80420E661C4E90505ED
:100870004FF4C449C4F808A0C4E90095C4E903567C
:100880002146C4E9086701F1780001F013F8C4F8C3
:1008900000900520E6612146C4E90505C4E9015838
:1008A000C4E90356C4E9086701F1780001F002F8D1
:1008B00004F1780001F0D2FC012104F1780000F08D
:1008C000E7FE022104F1780000F0E2FE102104F1BD
:1008D000780000F0DDFE04F1600109484FF4467332
:1008E0000622CD608D600B600A610D750570457044
:1008F0008570C57005714571BDE8F087DC74002016
:1009000014040020014801F09DB900005475002036
:1009100009490A4808B50A4A09880B0A0370417058
:100920006B4611880A0A8270C1700246054901F1BE
:10093000180000F0EBFE08BD08040020140400209D
:100940000A0400203C7500200149012048717047CD
:10095000140400200149002048717047140400204D
:1009600070B4BFF34F8FBFF36F8F19490020174E3C
:100970000860316841F400313160BFF34F8FBFF33D
:100980006F8F14490860BFF34F8F081F124943F659
:10099000FF750068C0F34E3CC0F3C90405EA4C1271
:1009A000204600BF42EA80730B60401EFAD2BCF1C1
:1009B000010CF3D2BFF34F8F306840F480303060C9
:1009C000BFF34F8FBFF36F8F70BC704714ED00E023
:1009D00050EF00E084ED00E060EF00E0014801F03E
:1009E00089BC00007C74002070470000014802F0C0
:1009F000DDBA0000E03E01202DE9F041044621B1BE
:100A00004FF40061C800C4E90201E0690025002834
:100A10000CBF4FF480602846DFF8F0C04026226803
:100A2000D4E9021713683943084303EA0C0140F480
:100A300000700843106020680768012001F0A4FFDF
:100A4000206807602068466020684668012001F041
:100A50009BFF20684FF641724660206885602068E1
:100A6000C56020688169114041F080018161206882
:100A70008669012001F088FF206886612068C561D1
:100A80002068C569012001F07FFF2068204AC56108
:100A9000206800F580508169114041F0040141F067
:100AA00008718161206800F580508569012001F09E
:100AB0006BFF2168174801F580518D61216801F5B0
:100AC00080510860206800F580500568012001F021
:100AD0005BFF206800F580500560A069012808D1FF
:100AE000206800F58050C16941F0400141F4803137
:100AF000C1616069084A818811640178D0F80100F9
:100B000041EA00205064BDE8F08100000F8120FF21
:100B1000233FDEF88020C10200800240012002F065
:100B20006DBE0000134A4DF8044D92F80EC001232B
:100B3000BCF1020F19D2947B02F10C034FF0000CB0
:100B400002F804C0947B02EB84046060907B00F8A0
:100B500003C0907B431C93733A2463462F223030AA
:100B600008704C708A7081F803C018465DF8044B19
:100B700070470000780D022070470000F0B583B088
:100B8000054600268B4F0C4600960868122806D9A9
:100B9000B84204D088A040F202510BF0A6FA606877
:100BA000012818BF022820D0032818BF04281CD011
:100BB000052818BF062818D0072818BF082814D001
:100BC000092818BF0A2810D00B2818BF0C280CD0F1
:100BD0000D2818BF0E2808D00F2818BF102804D0E1
:100BE00075A040F203510BF080FAA068002818BFEE
:100BF000012810D0022818BF03280CD0042818BFE1
:100C0000052808D0062818BF072804D06AA040F29B
:100C100004510BF06AFA95F83C00012802BF02204B
:100C200003B0F0BD0120072185F83C0020682A6848
:100C300009281DD90A38D36800EB400001FA00F0FA
:100C400023EA0000D0602068B84206D12868217AE3
:100C5000C26842EA0161C1601CE029680A38A268E2
:100C600000EB4000CB6802FA00F01843C86011E0C6
:100C7000136900EB400001FA00F023EA0000106164
:100C800028682178A268036901EB410102FA01F1A9
:100C90001943016160681F21072813D22A68401E8A
:100CA00000EB8003506B9940884350632868227999
:100CB0002188521E436B89B202EB82029140194394
:100CC000416328E02A680D2813D2C01F00EB80037F
:100CD000106B994088431063286821792288C91FC6
:100CE000036B92B201EB810102FA01F11943016336
:100CF00011E00D3800EB8003D06A99408843D06240
:100D00002868227921880D3AC36A89B202EB8202EF
:100D100091401943C16236482968814204BF216865
:100D2000122905D1D0F8041341F48001C0F804134E
:100D30002968814233D12168B94218BF11292ED1C7
:100D4000D0F8041341F40001C0F804132068B8423D
:100D500025D1284828490068B0FBF1F000EB80005D
:100D60004000009001901AD0B0F1004F1CD2002832
:100D7000D8BF002005DD10F0010002D00099491E07
:100D800000910199401C491C8842B8BF009A06DABC
:100D9000521E801C8842A2F101020092F8DB85F805
:100DA0003C6003B00020F0BD0098401E0090FCD1D4
:100DB000F5E70000120000102E2E2F4472697665B0
:100DC00072732F53544D3332463778785F48414C15
:100DD0005F4472697665722F5372632F73746D333B
:100DE00032663778785F68616C5F6164632E630098
:100DF000002001406804002040420F0027490322E0
:100E000070B591ED000ADFED263A9FED263AB8EE77
:100E1000400ADFED252ADFED250A0C1F20EE230A0C
:100E20009FED232AB7EE081ADFED221A30EE430AAF
:100E300050EE220ABCEEE00A10EE100A80B22080CA
:100E400091ED010AB8EE400A20EE020AC0EE010A56
:100E500020EEA10ABCEEC00A10EE101A61801649FD
:100E60000FF026FB154E164D3078032205EB40207F
:100E700000F5E87120880FF01BFB124904226088FE
:100E80000FF016FB3078042205EB402000F5EA71E4
:100E90006088BDE870400FF00BBB00000C04002020
:100EA000E54C4E3F0000C842CDCCCC3D0000204276
:100EB0006740533A00007A4414690020C4030020BC
:100EC00072690020186900207047704770B50446A9
:100ED0008069002818BF012804D061A040F2673162
:100EE0000BF003F9E069401E0F2804D94FF45A7142
:100EF0005BA00BF0FAF8606901281CBF00280228EB
:100F000004D057A040F269310BF0EFF82068016877
:100F10004268C1F340010029C2F3401218BF002A01
:100F20002DD0216C11F0100F03D1216C41F4007110
:100F30002164816811F0405F04BFA169002917D1C5
:100F4000C16A11F4700F1CBF816811F4806F0FD15A
:100F5000416821F020014160206C20F48070206401
:100F6000206C10F4805F03D1206C40F001002064FD
:100F70002046FFF743FF21686FF0120008602068E9
:100F800001684268C1F380010029C2F3C01218BF92
:100F9000002A34D0216C11F0100F03D1216C41F4E0
:100FA00000512164816811F4401F21D1816B11F43B
:100FB000401F1CBF816811F4806F19D1416811F482
:100FC000806F01BF816811F0405FA16900290FD1D6
:100FD000416821F080014160206C20F48050206441
:100FE000206C10F4807F03D1206C40F0010020645D
:100FF0002046FFF7C1FD21686FF00C0008602068F3
:101000000168426811F0010FC2F380121EBF002A6E
:10101000006810F0010F0AD0206C40F4803020648A
:10102000204600F0FFF921686FF001000860206899
:1010300001684268C1F340110029C2F3806214BF05
:10104000002A70BD616C6FF0200541F002016164FF
:1010500005602046FFF739FF2068056070BD00007D
:101060002E2E2F447269766572732F53544D33328E
:10107000463778785F48414C5F4472697665722FD5
:101080005372632F73746D3332663778785F68619B
:101090006C5F6164632E63002DE9F04104004FF042
:1010A000000804BF0120BDE8F081BD4D2068A842C2
:1010B0001FBFBC498842A0F18041B1F5913104D0F5
:1010C0004FF48671B8A00BF010F86068002818BFC4
:1010D000B0F5803F0AD0B0F5003F18BFB0F5403FF3
:1010E00004D0B1A040F20D110AF0FFFFA068002863
:1010F00018BFB0F1807F0AD0B0F1007F18BFB0F107
:10110000407F04D0A8A04FF487710AF0EEFF206959
:10111000002818BF012804D0A3A040F20F110AF044
:10112000E4FFA069002818BF012804D04FF488719B
:101130009DA00AF0DAFFA06AA94F002818BFB0F1FD
:10114000807F2DD0B0F1007F18BFB0F1407F27D055
:10115000B0F1806F18BFB0F1A06F21D0B0F1C06FB7
:1011600018BFB0F1E06F1BD0B0F1006F18BFB0F145
:10117000106F15D0B0F1206F18BFB0F1306F0FD0E5
:10118000B0F1406F18BFB0F1506F09D0B0F1706F7F
:1011900018BFB84204D084A040F211110AF0A5FF94
:1011A000E068002818BFB0F5006F04D07EA04FF4AF
:1011B00089710AF09AFFE069401E0F2804D97AA0CD
:1011C00040F213110AF091FF206B002818BF01288C
:1011D00004D04FF48A7174A00AF087FF6069012877
:1011E0001CBF0028022804D06FA040F215110AF09D
:1011F0007CFF206A002818BF012804D06AA04FF4A1
:101200008B710AF072FFA06AB8421CBFE06A002826
:101210000CD0B0F1805F1CBFB0F1005FB0F1405F57
:1012200004D061A04FF48D710AF05FFF206C00269E
:1012300028B96664204684F83C6000F0F5F8206C1C
:1012400010F0100F18BF4FF0010804D0404684F88A
:101250003C60BDE8F081206C20F4885040F0020032
:101260002064D5F8040320F44030C5F80403D5F811
:10127000040361680843C5F804032068416821F449
:101280008071416020682169426842EA0121416021
:101290002068416821F0407141602068A16842687F
:1012A000114341602068816821F4006181602068F9
:1012B000E168826811438160A06AB8422068816851
:1012C00021F070618160206804BF816821F0405185
:1012D0000CD0A16A8268114381602068816821F086
:1012E000405181602068E16A826811438160206812
:1012F000816821F0020181602068A169826842EA68
:1013000041018160206AD0B1606A401E072804D97B
:1013100034A040F216610AF0E8FE20683F494268B6
:1013200042F4006242602068426822F460424260F7
:101330002068626A436801EB4231194303E0206888
:10134000416821F40061416020683549C26A22F495
:101350007002C2622068A28BC36A01EB025119437A
:10136000C1622068816821F4007181602068216B6E
:10137000826842EA412181602068816821F48061AD
:10138000816020686169826842EA812181606664C7
:10139000206C20F0020040F00100206456E70000BD
:1013A00000200140002101402E2E2F4472697665F5
:1013B00072732F53544D3332463778785F48414C1F
:1013C0005F4472697665722F5372632F73746D3345
:1013D00032663778785F68616C5F6164632E6300A2
:1013E0000100000F2E2E2F447269766572732F5301
:1013F000544D3332463778785F48414C5F447269C8
:101400007665722F5372632F73746D33326637783B
:10141000785F68616C5F6164632E630000E0FFFFCA
:101420000000F0FF7047000070B50646006886B007
:10143000A0F18041B1F590311CBF06B070BD1B48D2
:10144000016841F480710160006803210025029564
:1014500000F4807005900C20CDE900011448694625
:1014600002F0D8F9134C144B1815C4E90035A560E7
:10147000810061610201C4E90350C4E906252562C7
:101480002046656201F022F818B197210BA00AF0FE
:10149000FDFCB46300220821A663122003F018FFAC
:1014A000122003F0E5FE06B070BD00004438024093
:1014B000000802407C740020106402402E2E2F533E
:1014C00072632F6164632E6300000000F0B583B087
:1014D0000446002516460F4600958069002818BF6F
:1014E000012804D04FF47E7155A00AF0FEFDE06A99
:1014F000002818BFB0F1805F0AD0B0F1005F18BFBC
:10150000B0F1405F04D04EA040F2F9310AF0EDFD99
:1015100094F83C00012802BF022003B0F0BD012076
:1015200084F83C002068816811F0010F28D182689E
:10153000514942F00102826050480068B0FBF1F06E
:1015400010EB4000009001901AD0B0F1004F72D221
:101550000028D8BF002005DD10F0010002D000995E
:10156000491E00910199401C491C8842B8BF009A4D
:1015700006DA521E801C8842A2F101020092F8DBBA
:101580002068816811F0010F51D0216C21F0010118
:1015900021F4C06141F480712164406810F4806FCF
:1015A00005D0206C20F4005040F480502064206C62
:1015B00010F4805F08BF656403D0606C20F0060003
:1015C000606484F83C506FF02200A26B2C49D16318
:1015D000A26B2C491164A26B2B49D164216808606D
:1015E0002068416841F0806141602068816841F471
:1015F0008071816021683346A06B3A464C3101F01E
:1016000049F92249D1F8040310F01F0F206806D0D1
:10161000884204BF816811F0405F04D007E0816810
:1016200011F0405F03D1816841F08041816003B0D7
:101630000020F0BDFFE70098401E0090FCD19FE71E
:101640002E2E2F447269766572732F53544D3332A8
:10165000463778785F48414C5F4472697665722FEF
:101660005372632F73746D3332663778785F6861B5
:101670006C5F6164632E630040420F0068040020C9
:10168000E7030008650400084F040008002001403B
:1016900070B504460E480D46814204D90DA040F2B3
:1016A000F1410AF022FD94F8200001281CBF94F8B3
:1016B0002000022805D0606A40F48020606201208A
:1016C00070BD2068416929434161002070BD000060
:1016D0007F8F03002E2E2F447269766572732F530D
:1016E000544D3332463778785F48414C5F447269D5
:1016F0007665722F5372632F73746D333266377849
:10170000785F68616C5F63616E2E63002DE9F04164
:10171000054688681F46164600280C4618BF042850
:1017200004D056A040F26D310AF0DFFCE0680028DA
:1017300018BF022804D051A040F26E310AF0D5FC47
:101740002069082804D94DA040F26F310AF0CDFC81
:10175000A068002821D06068B0F1005F04D347A0E2
:1017600040F276310AF0C1FC207D002818BF012824
:1017700004D04FF45E7141A00AF0B7FC95F8200048
:1017800001281CBF95F82000022810D0686A40F498
:10179000802068620120BDE8F0812068B0F5006F0C
:1017A000E2D336A040F272310AF09FFCDCE72868F1
:1017B000816811F0806F01BF816811F0006F81684E
:1017C00011F0805F53D0806801224FF4C071C0F3E4
:1017D000016082403A60A268BAB1E7686368D5F8F0
:1017E00000C03A4301EB001742EAC3024CF807205D
:1017F0002B684FF4C27202EB0012D4F810C043F809
:1018000002C0237D012B12D10AE0B4F800C0E268C7
:101810002B6842EA4C5201EB001C43F80C20E7E72E
:101820002B6853F802C04CF4807C43F802C0D6F811
:1018300005C04FF4C6743379271F2A6804EB0014DF
:1018400043EA0C2C07EB001342F804C0D6F801C0A1
:1018500001EB00102C68327842EA0C21E150296833
:101860000A5842F001020A500020BDE8F081686A7F
:1018700040F4001068620120BDE8F0812E2E2F4454
:101880007269766572732F53544D333246377878C8
:101890005F48414C5F4472697665722F5372632FC3
:1018A00073746D3332663778785F68616C5F63613B
:1018B0006E2E630070B5064690F820000D46012894
:1018C00034681CBF96F82000022805D0706A40F4E6
:1018D00080207062012070BD2868B0F5803F04D37D
:1018E0006DA040F2DD110AF000FC6868B0F5803FA1
:1018F00004D369A04FF4EF710AF0F7FBA868B0F5C4
:10190000803F04D364A040F2DF110AF0EEFBE868E8
:10191000B0F5803F04D34FF4F0715FA00AF0E5FB0F
:10192000A869002818BF012804D05BA040F2E1118B
:101930000AF0DBFBE869002818BF012804D056A094
:101940004FF4F1710AF0D1FB2869002818BF012873
:1019500004D051A040F2E3110AF0C7FB286A002826
:1019600018BF012804D04FF4F2714BA00AF0BDFB60
:101970003068574EA0F180416869B1F5505130D0C0
:101980001B28344604D944A04FF4FB710AF0ADFB88
:10199000686A1B2804D940A040F2F7110AF0A5FBA1
:1019A000D4F80002B44240F00100C4F800020CD1A7
:1019B000D4F8000220F47C50C4F80002D4F80002ED
:1019C000696A40EA0120C4F80002287D0122D4F8A7
:1019D0001C1202FA00F08143C4F81C12E969F9B93B
:1019E00007E00D28DCD92CA040F2ED110AF07DFBB8
:1019F000D6E7D4F80C128143C4F80C12AA8969689E
:101A00006B6962F31F4104EBC302C2F840122A89DA
:101A100029686B6962F31F4104EBC302C2F84412E8
:101A2000E969012916D1D4F80C120143C4F80C124B
:101A30002A8869686B6962F31F4104EBC302C2F82C
:101A400040122A89E9686B6962F31F4104EBC30203
:101A5000C2F84412A9690029D4F804120CBF8143CA
:101A60000143C4F8041229690029D4F814120CBFE8
:101A700081430143C4F81412296A012904D1D4F81E
:101A80001C120843C4F81C02D4F8000220F0010024
:101A9000C4F80002002070BD2E2E2F4472697665B6
:101AA00072732F53544D3332463778785F48414C28
:101AB0005F4472697665722F5372632F73746D334E
:101AC00032663778785F68616C5F63616E2E6300A1
:101AD00000640040704700002DE9F0410D001E46F3
:101AE0001746044618BF012D04D048A040F26441B7
:101AF0000AF0FBFA94F8200001281CBF94F820009B
:101B0000022806D0606A40F4802060620120BDE8AF
:101B1000F08115B1012D06D00AE02068C06810F0F0
:101B2000030F05D15DE02068006910F0030F58D065
:101B300021684FF4D87000EB0510095811F004012A
:101B4000B9602168095807BF490D3960C908796033
:101B50004FF4DA72D4F800C0111D0B1D5CF80000C0
:101B600002EB0512002D01EB0511C0F34000F860F7
:101B700003EB051023689B5803F00F033B612368B8
:101B80009B58C3F30723BB6123689A584FEA12425C
:101B90007A61226852583270226852584FEA1222F3
:101BA0007270226852584FEA1242B270226851583D
:101BB0004FEA1161F17021680958317121680958A3
:101BC0004FEA11217171216809584FEA1141B17131
:101BD000216808584FEA1060F07109D0012D0DD02E
:101BE00011E0606A40F4001060620120BDE8F081FD
:101BF0002068C16841F02001C16004E020680169EB
:101C000041F0200101610020BDE8F0812E2E2F441B
:101C10007269766572732F53544D33324637787834
:101C20005F48414C5F4472697665722F5372632F2F
:101C300073746D3332663778785F68616C5F6361A7
:101C40006E2E63002DE9F05F0546006800244669AA
:101C5000D0F804908768D0F80CB0D0F810A016F037
:101C6000010FD0F8188025D017F0010F07D00121FF
:101C7000816017F0020F7CD0284600F022FB17F499
:101C8000807F09D0286817F4007F4FF4807181604D
:101C900070D0284600F017FB17F4803F0AD0286860
:101CA00017F4003F4FF48031816000F0B98028467E
:101CB00000F00BFB16F0080F18BF1BF0100F04D03C
:101CC0002968102044F40074C86016F0040F4FF027
:101CD000080718BF1BF0080F04D02868C760284603
:101CE00000F082FA16F0020F07D02868C06810F0E2
:101CF000030F1CBF284600F079FA16F0400F18BFFA
:101D00001AF0100F04D02968102044F48064086190
:101D100016F0200F18BF1AF0080F04D028680761CA
:101D2000284600F075FA16F0100F07D028680069F1
:101D300010F0030F1CBF284600F06CFA16F4003FA9
:101D400018BF19F0100F05D02968102048602846E8
:101D500000F082FA16F4803F18BF19F0080F04D083
:101D600028684760284600F0B1FA16F4004F78D092
:101D700001E035E044E019F0040F6FD016F4807FE5
:101D80001CBF18F0010F44F0010416F4007F1CBFC3
:101D900018F0020F44F0020416F4806F1CBF18F014
:101DA000040F44F0040416F4006F18BF18F0700F0D
:101DB00054D008F07000402808BF44F0400448D0D8
:101DC0003EDC102808BF44F0080442D0202808BF99
:101DD00044F010043DD0302808BF44F0200438E01F
:101DE00017F0040F18BF4FF400647FF448AF17F0EA
:101DF000080F0ABF28464FF4805400F061FA3EE70E
:101E000017F4806F18BF44F400547FF445AF17F403
:101E1000006F0ABF284644F4804400F053FA3BE7C1
:101E200017F4802F18BF44F400447FF443AF17F435
:101E3000002F0ABF284644F4803400F045FA39E701
:101E4000502808BF44F0800403D0602808BF44F441
:101E500080742868816921F07001816129680420FB
:101E60004860002C08BFBDE8F09F686A20436862A4
:101E70002846FFF72FFEBDE8F09F0000002804BFB2
:101E80000120704770B504460068A0F18041B1F5AB
:101E9000C8411FBFA0F18041B1F5D041A0F1804100
:101EA000B1F5505103D0E921A0A00AF01EF9207E1F
:101EB000002818BF012803D0EA219CA00AF015F9D8
:101EC000607E002818BF012803D0EB2197A00AF0FC
:101ED0000CF9A07E002818BF012803D0EC2193A0A4
:101EE0000AF003F9E07E002818BF012803D0ED2195
:101EF0008EA00AF0FAF8207F002818BF012803D02E
:101F0000EE218AA00AF0F1F8607F002818BF0128AE
:101F100003D0EF2185A00AF0E8F8A068002818BFD8
:101F2000B0F1804F09D0B0F1004F18BFB0F1404F71
:101F300003D0F0217DA00AF0D8F8E068002818BF8F
:101F4000B0F1807F09D0B0F1007F18BFB0F1407FC1
:101F500003D0F12175A00AF0C8F82069002818BF45
:101F6000B0F5803F2DD0B0F5003F18BFB0F5403F31
:101F700027D0B0F5802F18BFB0F5A02F21D0B0F535
:101F8000C02F18BFB0F5E02F1BD0B0F5002F18BF41
:101F9000B0F5102F15D0B0F5202F18BFB0F5302FA9
:101FA0000FD0B0F5402F18BFB0F5502F09D0B0F5C5
:101FB000602F18BFB0F5702F03D0F2215BA00AF09C
:101FC00094F86069002818BFB0F5801F15D0B0F5EF
:101FD000001F18BFB0F5401F0FD0B0F5800F18BF1D
:101FE000B0F5A00F09D0B0F5C00F18BFB0F5E00FE5
:101FF00003D0F3214DA00AF078F86068401EB0F5D8
:10200000806F03D3F42149A00AF06FF894F8200000
:10201000002804BF204600F0A5F82068016821F0E0
:102020000201016001F04AFE05462068052640686D
:1020300010F0020F0AD000BF01F040FE401B0A283A
:1020400017D82068406810F0020FF5D120680168A9
:1020500041F00101016001F031FE05462068406851
:1020600010F0010F12D100BF01F028FE401B0A281A
:1020700007D9606A40F40030606284F82060012073
:1020800070BD2068406810F0010FEDD0207E01285F
:10209000206801680CBF41F0800121F080010160DF
:1020A000607E0128206801680CBF41F0400121F0EA
:1020B00040010160A07E0128206801680CBF41F04A
:1020C000200121F020010160E07E012820680168E4
:1020D0000CBF21F0100141F010010160207F0128A8
:1020E000206801680CBF41F0080121F0080101607F
:1020F000607F0128206801680CBF41F0040121F0D5
:102100000401016004F1080090E80710084342EA66
:102110000C01D4E90023014300205B1E0B43D36173
:102120000121606284F8201070BD00002E2E2F4423
:102130007269766572732F53544D3332463778780F
:102140005F48414C5F4472697665722F5372632F0A
:1021500073746D3332663778785F68616C5F636182
:102160006E2E63004DF804ED006887B0A0F1804149
:10217000B1F5C8411CBF07B05DF804FB1848016801
:1021800041F00071016000680221002200F000703F
:1021900005900320CDE9000109236946CDE902201D
:1021A0001048049301F036FB00220121132003F0B4
:1021B0008FF8132003F05CF800220121142003F0B3
:1021C00087F8142003F054F800220121152003F0B1
:1021D0007FF8152003F04CF807B05DF804FB000011
:1021E00040380240000C024070470000064B0021BE
:1021F000064A10B5FFF770FC044803490088BDE8A3
:10220000104080B20AF010B81A04002004750020B3
:10221000704700000D4B01210D4A10B5FFF75CFC23
:102220000B48816949B1022918BF10BD00880749D0
:10223000BDE8104080B20BF027B90448054940784A
:1022400001281CBF022810BD087010BD2204002008
:1022500020750020C00300207047000070B50446C0
:1022600090F82000012804D0606A40F400206062E9
:102270001CE0022084F820002068016821F00101A0
:10228000016001F01BFD05462068406810F0010F59
:1022900013D000BF01F012FD401B0A2808D9616A63
:1022A000052041F40031616284F82000012070BDF6
:1022B0002068406810F0010FECD10020606270BD12
:1022C000704770477047704770477047704790F885
:1022D0003510022903D08021416501207047052176
:1022E00080F835100068016821F0010101600020CC
:1022F000704700002DE9F84304464FF00009724A88
:102300000821CDF800904FF41650A56D94F85C307C
:1023100012682E68B2FBF0F801FA03F3334211D0D1
:102320002068026812F0040F0CD0026822F0040248
:10233000026094F85C0001FA00F0A860606D40F063
:102340000100606594F85C00012707FA00F0304254
:1023500009D02168496911F0800F04D0A860606D30
:1023600040F00200606594F85C1004208840304220
:1023700009D02168096811F0020F04D0A860606DCF
:1023800040F00400606594F85C10102088403042F2
:1023900020D02168096811F0080F1BD0A8602068C0
:1023A000016811F4802F09D0006810F4002F02D0CA
:1023B000A16C79B10CE0216C51B90BE0016811F40A
:1023C000807F03D1016821F008010160216C09B10F
:1023D0002046884794F85C1020208840304249D03D
:1023E0002168096811F0100F44D0A86094F83500F6
:1023F00005282068016809D011F4802F2AD00068D0
:1024000010F4002F23D0E16B19B331E021F0160155
:1024100001602068416921F080014161206C002841
:1024200004BFA06C002804D02068016821F00801D6
:10243000016094F85C003F2101FA00F0A86084F884
:10244000349084F83570216DC1BBBDE8F883616CB0
:1024500071B90FE0016811F4807F07D1016821F0A4
:102460001001016084F8349084F83570E16B09B193
:1024700020468847606D002808BFBDE8F883606D7E
:1024800010F0010F15D0052084F835002068016890
:1024900021F0010101600098401C0090404504D8E3
:1024A0002068006810F0010FF5D184F8349084F8AA
:1024B0003570E16C002908BFBDE8F883204601B003
:1024C000BDE8F04308470000680400202DE9F0470C
:1024D000044601F0F3FB002C054604BF0120BDE8D3
:1024E000F087CB49206888421CBFCA4988422DD05A
:1024F000C94988421CBFC949884227D0C849884277
:102500001CBFC849884221D0C74988421CBFC7495F
:1025100088421BD0C64988421CBFC649884215D094
:10252000C54988421CBFC54988420FD0C44988426A
:102530001CBFC449884209D0C34988421CBFC34953
:10254000884203D0C921C2A009F0CFFD60680028ED
:1025500018BFB0F1007F2DD0B0F1806F18BFB0F17F
:10256000C06F27D0B0F1006F18BFB0F1206F21D03D
:10257000B0F1406F18BFB0F1606F1BD0B0F1805F59
:1025800018BFB0F1905F15D0B0F1A05F18BFB0F1E7
:10259000B05F0FD0B0F1C05F18BFB0F1D05F09D00D
:1025A000B0F1E05F18BFB0F1F05F03D0CA21A8A07E
:1025B00009F09BFDA06800281CBF4028802803D09C
:1025C000CB21A3A009F091FDE068B0F5007F18BF12
:1025D000002803D0CC219EA009F087FD2069B0F52A
:1025E000806F18BF002803D0CD2199A009F07DFD90
:1025F000606900281CBFB0F5006FB0F5805F03D0A4
:10260000CE2193A009F071FDA06900281CBFB0F590
:10261000005FB0F5804F03D0CF218DA009F065FD9C
:10262000E06900281CBFB0F5807F202803D0D021AE
:1026300087A009F05AFD206A002818BFB0F5803F36
:1026400009D0B0F5003F18BFB0F5403F03D0D1210D
:102650007FA009F04AFD606A002835D0042806D022
:10266000D2217BA009F041FD606A00282CD0A06A2D
:10267000002818BF012807D0022818BF032803D05C
:10268000D72173A009F031FDE06A002818BFB0F52A
:10269000000F09D0B0F1807F18BFB0F1C07F03D028
:1026A000D8216BA009F021FD206B002818BFB0F5E0
:1026B000001F09D0B0F5800F18BFB0F5C00F03D0D0
:1026C000D92163A009F011FD002684F834600220AE
:1026D00084F835002068016821F00101016020685C
:1026E000006810F0010F10D001F0E8FA401B052837
:1026F00006D920216165032084F83500BDE8F08704
:102700002068006810F0010FEED1D4E9023CD4E952
:102710000010D4E9047218434CEA0708D4E90653C0
:10272000D4E908C740EA0809086849EA0202DFF864
:1027300058812A4342EA030200EA080042EA0C02F6
:10274000042F42EA000003D1D4E90B231A431043BB
:102750000860D4F800C00123606ADCF81410042873
:1027600021F0070140EA010236D1D4E90A100A43F8
:1027700018B3A56955B1B5F5005F14D000291CBF89
:102780000129022921D003291CD025E019B10129F2
:1027900005D0022920D110F0807F1DD015E0B0F1C6
:1027A000C07F19D111E081B1012907D002290CD0D5
:1027B000032908BFB0F1C07F07D00DE010F0807F83
:1027C00003D109E010F0807F06D04020606584F8D6
:1027D00035300120BDE8F087CCF8142020682B4963
:1027E000C2B2103A6FF30900A1FB0221284A09097D
:1027F0000329525CE26588BF001D3F21A06591401E
:102800008160666584F835300020BDE8F0870000FF
:102810001060024028600240406002405860024060
:102820007060024088600240A0600240B8600240D0
:102830001064024028640240406402405864024030
:102840007064024088640240A0640240B8640240A0
:102850002E2E2F447269766572732F53544D333286
:10286000463778785F48414C5F4472697665722FCD
:102870005372632F73746D3332663778785F686193
:102880006C5F646D612E63003F8010E0ABAAAAAA62
:10289000F83C01082DE9F04704460E46581E4FF655
:1028A000FF7188421D46D4F8589017464FF0000833
:1028B00004D327A040F2DD1109F017FC94F834008E
:1028C000012804BF0220BDE8F08794F835200121DB
:1028D000002084F83410012A1CBF4FF0020884F84D
:1028E000340002D04046BDE8F087022184F835105C
:1028F00060652068016821F48021016020684560DE
:10290000A068402820680CBF8760866020680CBFE4
:10291000C660C76094F85C003F2101FA00F0C9F876
:1029200008002068016841F01601016020684169D3
:1029300041F080014161206C20B12068016841F0C4
:10294000080101602068016841F001010160C9E7E8
:102950002E2E2F447269766572732F53544D333285
:10296000463778785F48414C5F4472697665722FCC
:102970005372632F73746D3332663778785F686192
:102980006C5F646D612E630070B5044601F096F9CA
:10299000B4F1FF3F054602D004480078044401F03A
:1029A0008DF9401BA042FAD370BD00005C040020EA
:1029B0002DE9F047054690F845000C46012804BF74
:1029C0000220BDE8F08701260221A86885F845604D
:1029D00085F84410002818BFB0F5804F04D0F4A04B
:1029E00040F21F5109F081FBE868B0F5006F18BF95
:1029F000002804D04FF4A461EDA009F076FB002C70
:102A000000F0BE812068002818BFB0F5000F04D088
:102A1000E7A040F2255109F068FB6068002818BF64
:102A2000B0F5800F04D0E2A040F2265109F05DFB22
:102A3000A068002818BFB0F5003F16D0B0F5802F71
:102A400018BFB0F5C02F10D0B0F5002F18BFB0F5EB
:102A5000202F0AD0B0F5402F18BFB0F5602F04D05A
:102A6000D3A040F2275109F040FBE068002818BFCE
:102A7000B0F5803F04D0CEA04FF4A56109F035FB3E
:102A80002069002818BFB0F5005F04D0C8A040F24C
:102A9000295109F02AFB6069B0F5805F18BF002852
:102AA00004D0C3A040F22A5109F01FFBA069B0F581
:102AB000806F18BF002804D0BDA040F22B5109F050
:102AC00014FBE069002818BFB0F5007F04D0B8A05F
:102AD00040F22C5109F009FB206A802818BF002819
:102AE00004D0B3A040F22D5109F0FFFA606A00282B
:102AF00018BF202808D0402818BF602804D0ACA0F8
:102B000040F22E5109F0F1FAA06A102818BF0028EF
:102B100004D0A7A040F22F5109F0E7FAE06AB0F123
:102B2000004F18BF002804D04FF4A661A0A009F000
:102B3000DCFA206BB0F5007F1CBFB0F5407F0028A9
:102B400004D09BA040F2315109F0CFFA606B4028CD
:102B50001CBF8028C02804D095A040F2325109F053
:102B6000C4FAA06B002818BF202804D090A040F21F
:102B7000335109F0BAFAE06B002818BF082804D0D6
:102B80008BA040F2345109F0B0FA206C012818BF34
:102B9000002804D086A040F2355109F0A6FA606CF6
:102BA000A0F58061043918BF042808D0002818BF98
:102BB000102804D07EA040F2365109F096FAA06C9D
:102BC000A0F5806102391CBF0228002804D078A03B
:102BD00040F2375109F089FA606DB0F5803F04D3B7
:102BE00073A04FF4A76109F080FAA06D002818BF08
:102BF000802804D06EA040F2395109F076FAE06DD9
:102C0000002818BF102808D0202818BF302804D06A
:102C100067A040F23A5109F068FA206E082818BF00
:102C2000002804D062A040F23B5109F05EFA606EC9
:102C3000042818BF002804D05DA040F23C5109F0E0
:102C400054FAA06E022818BF002804D058A040F201
:102C50003D5109F04AFAE06EB0F5803F18BF0028F8
:102C600004D053A040F23E5109F03FFA206FB0F576
:102C7000803F04D34EA040F23F5109F036FAD4E928
:102C80000017D4E90223A8680F43E96842EA030960
:102C9000D4E904C8D4E9062347EA0909276A49EABE
:102CA0000009286849EA0C0C4CEA0808D4F824C04A
:102CB00048EA0108016848EA02094B4A49EA030365
:102CC000D4F828803B43114043EA0C0242EA080250
:102CD00011430160286807680120FFF755FE286846
:102CE0000760D4E90B12D4E90D0741EA020340EA78
:102CF00007082F68D4E90FC143EA0803D4E911207B
:102D000043EA0C0319431143084378602868476875
:102D10000120FFF739FE28684FF6417247602968A5
:102D2000E06C88602968206DC860B4F85470D4E9FC
:102D300017C1A36D286843EA0C0341EA0748D4E9A8
:102D400019C7816943EA080343EA0C03114043EAC7
:102D5000070211438161286887690120FFF714FE8B
:102D600028688761D4E91B012A680843D061286874
:102D7000C4690120FFF708FE2868C46110E000BFA5
:102D8000D5E90223286801681A4321F490411143D0
:102D90000160286804680120FFF7F6FD28680460D8
:102DA000002085F8446085F84500BDE8F087000004
:102DB0002E2E2F447269766572732F53544D333221
:102DC000463778785F48414C5F4472697665722F68
:102DD0005372632F73746D3332663778785F68612E
:102DE0006C5F6574682E63000F8120FF2DE9F0038E
:102DF00090F845C00024BCF1010F02BF0220BDE8DD
:102E0000F00370474FF001098162002B80F8459074
:102E10004FF0020C80F844C01DD9A3F1010644F222
:102E2000F4554FF0004700BFC4EBC41801EB441C3D
:102E300008EB480802EB8808CCF80070B442CCE9F3
:102E400001583ABF0CF12008CCF80C80CCF80C10DB
:102E5000641C9C42E8D30368002203F58053D960C8
:102E600080F8449080F845201046BDE8F003704794
:102E70002DE9F00390F845C00024BCF1010F02BF1A
:102E80000220BDE8F00370474FF00108C162002B3B
:102E900080F845804FF0020C80F844C084BF5D1E6E
:102EA0004FF480161FD900BFC4EBC41C0CEB4C07B9
:102EB00001EB441C02EB8707CCF80060CCF80870EB
:102EC000C7692FB9DCF8007047F44009CCF80090CE
:102ED000AC423ABF0CF12007CCF80C70CCF80C10C7
:102EE000641C9C42E0D30368002203F580531961FF
:102EF00080F8448080F845201046BDE8F003704714
:102F0000704790F84510012904BF02207047012244
:102F1000022180F84520002380F84410816AD1F80E
:102F200000C01CF0004F38D1D1F800C01CF4807FE5
:102F300020D0D0F838C00CF1010CC0F838C0BCF17A
:102F4000010F08BF01634163D1F800C0CCF30D4C01
:102F5000ACF1040CC0F83CC0D0F830C0DCF808C0BC
:102F6000C0F840C0C968816280F8442080F84530CC
:102F700000207047D1F800C01CF4007F05D08263A8
:102F8000C0E90C13C968816207E0D0F838C00CF1C1
:102F9000010CC0F838C0C968816280F8442080F80C
:102FA00045300120704790F84400704770B50446E2
:102FB0000068002500F580500126416911F0400F9E
:102FC0000CD0204600F052FA2168402001F58051D3
:102FD000486184F8446084F845500EE0406910F080
:102FE000010F0AD0204600F081FB206800F58050D8
:102FF000466184F8446084F845504FF4803021687D
:1030000001F580514861206800F58050406910F456
:10301000004F08BF70BD2046FFF772FF21684FF4D4
:10302000004001F58051486184F8446084F84550BF
:1030300070BD00002DE9F04184B04FF0000704009E
:10304000019702BF012004B0BDE8F081606801284B
:1030500018BF002803D0BA218EA009F046F8A06955
:10306000002818BF012803D0BB218AA009F03DF831
:10307000E069002818BF012803D0BC2185A009F011
:1030800034F8206A002818BFB0F5000F03D0BD2126
:1030900080A009F02AF894F8440020B9204684F86A
:1030A000457000F027F98948016841F480410160CA
:1030B000006800F4804000908548016821F4000118
:1030C00001600168226A11430160206800F58050A8
:1030D000016841F00101016000F0F0FD0546206843
:1030E00000F58050006810F0010F14D000F0E6FDEC
:1030F000401BB0F5FA7F07D9032084F8440084F818
:10310000457004B0BDE8F081206800F5805000688B
:1031100010F0010FEAD12068006920F01C0503F0CF
:10312000C3F86C496C4A0144914238BF45F0080528
:1031300015D36A4A6A4902448A4238BF45F00C05F1
:103140000DD3684A684902448A4208D36749684AED
:103150000844904234BF45F0040545F0100520684E
:10316000056100214FF40042204600F0C1FA00281A
:103170004FF0010875D1FF20FFF706FC60680028BA
:103180004ED000F09BFD064641F2883501212046D5
:1031900001AA00F0FFF800F091FD801BA84218D8AA
:1031A000019810F0040FF1D0002120464FF4805216
:1031B00000F09EFA002854D100F080FD064620461B
:1031C000012101AA00F0E6F800F078FD801BA8427A
:1031D0000BD901212046FDF70FFC84F84480032021
:1031E00084F8457004B0BDE8F081019810F0200F1C
:1031F000E5D01021204601AA00F0CCF8002830D1FB
:10320000019810F0040F1ABF4FF40061E160E7600D
:1032100010F0020F12BFA7604FF48040A0602EE0B4
:10322000A068002818BFB0F5804F04D019A040F264
:10323000951108F05AFFE068B0F5006F18BF00283C
:1032400004D014A04FF4CB7108F04FFFD4E9021062
:10325000C00840EA510082B22046002100F048FA3E
:1032600048B101212046FDF7C7FB84F8448004B033
:103270000120BDE8F08140F6FF70FFF785FB0021DB
:103280002046FDF7B9FB84F8448004B00020BDE877
:10329000F08100002E2E2F447269766572732F53D1
:1032A000544D3332463778785F48414C5F447269F9
:1032B0007665722F5372632F73746D33326637786D
:1032C000785F68616C5F6574682E63004438024003
:1032D0000438014000D3CEFEC0E1E40040F1E9FD36
:1032E00040787D0100796CFC005A6202001F0AFAE6
:1032F00080F0FA02F0B5006887B0A0F18041B1F526
:1033000020311CBF07B0F0BD1E48016841F00071BC
:103310000160016801F000710591016841F0806170
:103320000160016801F080610591016841F0006170
:103330000160006802240025694600F000600590E5
:1033400003260B2732208DE8F1000F4800F062FAC7
:10335000862069468DE8F1000C4800F05BFA4FF4D6
:10336000605069468DE8F100094800F053FA0022E8
:1033700002213D2001F0ACFF3D2001F079FF07B0B4
:10338000F0BD00003038024000080240000002405A
:10339000000402402DE9F0410446008A16460D461D
:1033A000202804D923A04FF4856108F09EFE94F8EC
:1033B0004400822804BF0220BDE8F08182204FF43F
:1033C000784384F844005911206801EA8512B4F862
:1033D00010C0016903EACC2301F01C011943114319
:1033E00021F0020141F00107076100F067FC17F0CE
:1033F000010F05464FF0010713D000BF00F05EFC3F
:10340000401BB0F5803F07D3002084F8447084F857
:1034100045000320BDE8F0812068006910F0010F2D
:10342000ECD12068406980B2306084F8447000209C
:10343000BDE8F0812E2E2F447269766572732F538A
:10344000544D3332463778785F48414C5F44726957
:103450007665722F5372632F73746D3332663778CB
:10346000785F68616C5F6574682E63007047F8B5BB
:10347000044690F84500012804BF0220F8BD01254C
:10348000022084F8455084F8440000262068016832
:1034900041F0080101602068006800902846FFF7AD
:1034A00073FA2168009808602068016841F00401FF
:1034B00001602068006800900120FFF765FA21682C
:1034C00000980860206800F58050816941F48011FF
:1034D0008161206800F58050806900900120FFF72D
:1034E00053FA206800F5805100988861206800F543
:1034F0008050816941F400518161206800F580505D
:10350000816941F00201816184F84450002084F80F
:103510004560F8BDF8B5044690F84500012804BFA1
:103520000220F8BD0125022084F8455084F84400AB
:10353000206800F58050816921F400518161206884
:1035400000F58050816921F0020181612068002628
:10355000016821F0040101602068006800900120EA
:10356000FFF712FA216800980860206800F5805083
:10357000816941F480118161206800F58050806983
:1035800000900120FFF700FA206800F580510098B4
:1035900088612068016821F00801016020680068E6
:1035A00000900120FFF7F0F921680098086084F886
:1035B0004450002084F84560F8BD90F84520002371
:1035C000012A04BF022070472DE9F001012780F88D
:1035D0004570022280F844204FF0000679B1D0F8FF
:1035E0002CC0DCF8002012F0004F10D0122180F81F
:1035F000441080F845600120BDE8F001704780F874
:10360000447080F845600120BDE8F001704740F249
:10361000F455A94221D9B1FBF5F205FB1214B1FB17
:10362000F5F2002C18BF521C012A16D0002A48D9E6
:10363000C2F10104A2F1010CC4EBC41404EB440474
:1036400001EB8401C1F30C04C16AD1F8008028F0B9
:103650004058C1F80080D3B912E0DCF80020C1F373
:103660000C0142F04052CCF80020C26A5160C16A9D
:103670000A6842F000420A60C16AC968C16220E07B
:10368000C16AD1F8008048F08058C1F80080C16A52
:1036900063454D6008D1C16AD1F8008048F00058F8
:1036A000C1F80080C16A4C60C16AD1F800805B1C1F
:1036B000934248F00048C1F80080C16AC968C162FD
:1036C000C3D3016801F580514A6912F0040F05D097
:1036D00004224A61016801F580514E6080F844700F
:1036E00080F845600020BDE8F00170477047000099
:1036F00070B50446008A16460D46202804D94FF4BA
:103700008E6120A008F0F1FC94F84400422804BF28
:10371000022070BD42204FF4784384F844005911D0
:1037200020681FFA86FC268A01EA85120169C0F822
:1037300014C003EAC62301F01C002168184310439B
:1037400040F003060E6100F0B9FA16F0010F0546CD
:103750004FF0010612D000BF00F0B0FA401BB0F5E8
:10376000803F06D3002084F8446084F8450003209D
:1037700070BD2068006910F0010FEDD184F844603D
:10378000002070BD2E2E2F447269766572732F5300
:10379000544D3332463778785F48414C5F44726904
:1037A0007665722F5372632F73746D333266377878
:1037B000785F68616C5F6574682E63000C48012156
:1037C00010B500F0EDF9002818BF10BD012005F07C
:1037D000AFF8084800224FF4004100F039FA0649DA
:1037E0004E2088704420BDE8104005F077BF0000EF
:1037F00000100240000C0240E003002004490A6867
:10380000024208BF704710B50860FFF7D7FF10BD30
:10381000143C01402DE9F84FDFF828930026DFF82B
:1038200028A3A0F18048DFF824B3B8F500380D468E
:10383000044618BF4C4529D054451CBFA4F1804014
:10384000B0F5033022D0A4F18040B0F504301CBFA5
:10385000A4F18040B0F5053018D05C451CBFA4F140
:103860008040B0F5073011D0A4F18040B0F50830A9
:103870001FBFA4F18040B0F50930A4F18040B0F53D
:103880000A3003D0C121B2A008F02FFC2888000420
:10389000000C03D1C221AEA008F027FC6868002804
:1038A00018BF012829D0112818BF022825D01228B6
:1038B0001CBFA0F18051B1F588111ED0A0F180513C
:1038C000B1F504111CBFA0F18051B1F5441114D021
:1038D000A0F18051B1F590111CBFA0F18051B1F55C
:1038E00008110AD0A0F18051B1F5481118BF032882
:1038F00003D0C32196A008F0F8FBA86800281CBFDD
:103900000128022803D0C42191A008F0EEFB012772
:10391000286807FA06F900EA0908C84540F00C8152
:103920006868022818BF122834D12869002818BFF7
:1039300001281FD0022818BF03281BD0042818BF55
:10394000052817D0062818BF072813D0082818BF45
:1039500009280FD00A2818BF0B280BD00C2818BF35
:103960000F2807D00D2818BF0E2803D0D52178A026
:1039700008F0BBFBF0082B6971074FF00F0C04EB4C
:103980008000026AC90E0CFA01FC8B4022EA0C018D
:10399000194301622A79032120684FEA460A01FA95
:1039A0000AFB02F0030120EA0B0001FA0AF10843C6
:1039B00020606868012818BF022803D0112818BFAA
:1039C00012281DD1E868002818BF012807D0022856
:1039D00018BF032803D0E9215DA008F086FBA0688A
:1039E000E96820EA0B0001FA0AF10843A060606868
:1039F000297920EA0900C1F30011B1400843606051
:103A0000E068A96820EA0B0001FA0AF10843E060C7
:103A1000686810F0805F7DD05C48016841F48041A7
:103A20000160006826F0030101F1804101F5983141
:103A300000F480400090B007D1F808280F23000F51
:103A4000A4F1804C8340BCF5003C22EA030308BF8C
:103A500000223ED0A4F18042B2F5013208BF01221B
:103A600037D0A4F18042B2F5023208BF022230D032
:103A7000A4F18042B2F5033208BF032229D0A4F199
:103A80008042B2F5043208BF042222D0A4F1804261
:103A9000B2F5053208BF05221BD0A4F18042B2F571
:103AA000063208BF062214D0A4F18042B2F50732D4
:103AB00008BF07220DD0A4F18042B2F5083208BF3A
:103AC000082206D0A4F18042B2F509320CBF0922C7
:103AD0000A2202FA00F02E4A1843C1F80808696861
:103AE000106811F4803F20EA080018BF40EA08007F
:103AF000284910606A68086812F4003F20EA08004C
:103B000018BF40EA0800244A08606968106811F488
:103B1000801F00E010E020EA080018BF40EA08001B
:103B20001E4910606A68086812F4001F20EA080045
:103B300018BF40EA08000860761C102EFFF4E8AEBB
:103B4000BDE8F88F0004024000080240001802405F
:103B50002E2E2F447269766572732F53544D333273
:103B6000463778785F48414C5F4472697665722FBA
:103B70005372632F73746D3332663778785F686180
:103B80006C5F6770696F2E6300000000443802406C
:103B9000003C0140043C0140083C01400C3C014019
:103BA00070B50C00054604D104A040F28B1108F05A
:103BB0009CFA2869204018BF012070BD2E2E2F448A
:103BC0007269766572732F53544D33324637787865
:103BD0005F48414C5F4472697665722F5372632F60
:103BE00073746D3332663778785F68616C5F6770C5
:103BF000696F2E630000000070B50D00044604D10B
:103C000004A040F2C11108F070FA60696840606178
:103C100070BD00002E2E2F447269766572732F538B
:103C2000544D3332463778785F48414C5F4472696F
:103C30007665722F5372632F73746D3332663778E3
:103C4000785F68616C5F6770696F2E6300000000C9
:103C500070B50C001546064604D109A040F2AB1120
:103C600008F043FA002D02BF2004B06170BD012DA1
:103C700004D04FF4D67102A008F037FAB46170BDD9
:103C80002E2E2F447269766572732F53544D333242
:103C9000463778785F48414C5F4472697665722F89
:103CA0005372632F73746D3332663778785F68614F
:103CB0006C5F6770696F2E630000000001488068C8
:103CC000704700005C040020D0F8940206F03FB971
:103CD000D0F8940206F04FB9006807F046BD0068BE
:103CE00007F047BD01EB810100EBC10090F85C00DB
:103CF000704701EB810100EBC100C06C704710B54B
:103D0000044690F89002012804BF022010BD012053
:103D100084F89002206807F038FD002084F89002B3
:103D200010BD2DE9F04784B0044694F890C2DDE957
:103D30000D600C9FBCF1010F02BF022004B0BDE872
:103D4000F08700254FF0010A01EB810C02F07F089B
:103D500004EBCC0C84F890A24FEAD2198CF83D50B9
:103D60008CF83830ACF840008CF839108CF83F6093
:103D70008CF83A808CF83B908CF83C700097CDE939
:103D80000160206807F068FD84F8905204B0BDE837
:103D9000F08770472DE9F00301EB810C4FF002052D
:103DA00000EBCC0C069FDDE90786002F8CF83B204A
:103DB0008CF83F3006BF03248CF842408CF8425008
:103DC0004FF0000433B1012B37D0022B10D0032B5E
:103DD00017D020E0012F08BF002A1CD1002E04BFFD
:103DE00001228CF8512014D09CF851202AB310E005
:103DF0001AB19CF8502002B30BE09CF8512042B954
:103E00001BE01AB19CF85020BAB102E09CF8512096
:103E10009AB18CF84250CCE911868CF85C40CCF811
:103E20004C408CF839100CF138018CF85D40027C64
:103E30000068BDE8F00307F089BD8CF84240EAE76E
:103E40002DE9F04FD0F80080002783B004464046AB
:103E500007F097FC01281CBF03B0BDE8F08F206875
:103E600007F058FF002804BF03B0BDE8F08F2068BA
:103E700007F050FF10F4001F03D021684FF400102A
:103E80004861206807F046FF10F4801F03D02068C7
:103E90004FF480114161206807F03CFF10F0806F03
:103EA00003D021684FF080604861206807F032FF3E
:103EB00010F0020F4FF002051CBF2068456120681A
:103EC00007F028FF10F0005F10D0D8F8400420F071
:103ED0002E00C8F840042046FFF7FAFE20680121B2
:103EE00007F0A8FE21684FF000504861206807F0F5
:103EF00011FF10F0807F5CD02668D6F84004019056
:103F0000D6F8400420F02E000090019810F0020F27
:103F10000ED0019810F0010F06D0B06920F00051CA
:103F2000B1612046FFF7D0FE009840F002000090FB
:103F3000019810F0080F32D0009840F0080000906F
:103F4000019810F0040F1CD0A06902280DD0E06881
:103F5000032804BF4EF66020C6F80404204600F093
:103F6000ACFB2046FFF7B0FE19E0019800F4C0203A
:103F7000B0F5802F206814BF0121022107F05AFEFE
:103F8000ECE7204600F098FBD6F8400420F02E0025
:103F9000C6F840042068816941F0005181610198B0
:103FA00010F0200F00981CBF40F020000090C6F8D1
:103FB0004004206807F0AEFE10F0080F4FF008062E
:103FC00004D0204600F07DFB20684661206807F0A1
:103FD000A1FE10F0007F00F07182206807F0B1FCB4
:103FE0008146A068002884BF01264FF0040B40F2F0
:103FF000618200BF06FA07F010EA090F00F0548250
:1040000008EB4710D0F8000507F0FF0A10F4004F46
:10401000206800EB4A15D5F8080500F0040000F010
:10402000268140B1C5F808B5D5F80C0540F002006E
:10403000C5F80C0541E0D5F8080510F0200F1CBFAD
:104040002020C5F8080538D1D5F8080510F0080F6C
:1040500017D0D5F80C250AEB8A03052004EBC30C16
:10406000102142F00203C5F80C3508228CF85D00DF
:10407000C5F80815C5F808255146206807F085FBE6
:104080001BE0D5F8080510F4806F16D0D5F80C05A4
:1040900040F00200C5F80C052068514607F075FB9A
:1040A0000AEB8A021020C5F80805082104EBC203B8
:1040B000820183F85D10C5F80825D5F8080510F4CD
:1040C000007F40F01F81D5F8080510F0010F46D0A1
:1040D000206950B1D5F810150AEB8A0204EBC20032
:1040E000C1F31201826C511AC1640AEB8A0104EB1C
:1040F000C1000090002180F85D608165C5F8086509
:1041000090F83F00002818BF022802D003280ED0E4
:104110001BE0D5F80C0540F00200C5F80C0520683E
:10412000514607F032FB1020C5F808050DE0D5F820
:104130000005324640F00050C5F800050098514691
:1041400080F85C602046FFF724FE009890F850004D
:1041500080F00101009880F8501000F0A5B9D5F862
:10416000080510F0020F2FD0D5F80C050AEB8A02D3
:1041700020F00201C5F80C1504EBC20090F85D10A8
:10418000012908BF80F85C6000F08581052900F0F6
:10419000AE81062918BF082904D0032900F0B38195
:1041A00000F079B9816D4A1C8265032900F2A6816D
:1041B00000F0A9B9D5F8001521F0804141F0004187
:1041C000C5F8001500F067B9D5F8080510F0800FA4
:1041D00018D0D5F80C250AEB8A03062104EBC3009E
:1041E00042F00202C5F80C25826D521C826580F8EF
:1041F0005D105146206807F0C8FA8020C5F8080510
:1042000000F052B9D5F8080510F0100F00F04C81FD
:104210000AEB8A0104EBC10090F83F10032904D097
:10422000002918BF02290DD01DE000218165D5F8B5
:104230000C0540F00200C5F80C052068514607F057
:10424000A4FA10E000218165216961B9032180F899
:104250005D10D5F80C0540F00200C5F80C0520688B
:10426000514607F092FA1020C5F808051CE140B14C
:10427000C5F808B5D5F80C0540F00200C5F80C05E6
:1042800012E1D5F8080510F0200F1BD00AEB8A02C6
:104290002021C5F8081504EBC20090F83D10012953
:1042A00058D1002180F83D10022280F85C20D5F81A
:1042B0000C0540F00200C5F80C052068514607F0D7
:1042C00064FAF1E0D5F8080510F0400F15D00AEBBC
:1042D0008A0104EBC100002180F85DB080F83D60E8
:1042E0008165D5F80C0540F00200C5F80C05206882
:1042F000514607F04AFA402080E7D5F8080510F447
:10430000007F0CD0D5F80C0540F00200C5F80C0574
:104310002068514607F039FA4FF400706EE7D5F87F
:10432000080510F0010F16D00AEB8A02002104EBF9
:10433000C20000908165D5F80C0540F00200C5F878
:104340000C052068514607F020FAC5F8086500986A
:1043500080F85D60A8E0D5F8080510F0080F14D0CB
:104360000820C5F80805D5F80C0540F00200C5F88E
:104370000C052068514607F008FA0AEB8A0205206E
:1043800004EBC20181F85D008EE0D5F8080510F05D
:10439000100F1DD00AEB8A01002204EBC10003219B
:1043A00090F83D308265002B80F85D1002BF90F8D8
:1043B0003C10002980F83D60D5F80C0540F0020063
:1043C000C5F80C052068514607F0DFF9102015E705
:1043D000D5F8080510F0800F12D0D5F80C0540F084
:1043E0000200C5F80C052068514607F0CEF90AEB2B
:1043F0008A02062104EBC202802082F85D10FDE6ED
:10440000D5F8080510F4806F17D0D5F80C0540F0EA
:104410000200C5F80C052068514607F0B6F91020D7
:10442000C5F808050AEB8A02810104EBC2030822E1
:10443000C5F8081583F85D2036E0D5F8080510F0BA
:10444000020F31D0D5F80C050AEB8A0220F00201E8
:10445000C5F80C1504EBC20090F85D1001290BD0D3
:10446000032914BF0429022113D005293FD00629AE
:1044700018BF08293DD00EE090F83F1080F85C602E
:10448000022908D190F8511081F0010180F85110F3
:1044900001E080F85C100221C5F80815514690F83B
:1044A0005C202046FFF775FCA0687F1CB8423FF6F1
:1044B000A1AD00BF21684FF000704861206807F08F
:1044C00029FC10F0100F04BF03B0BDE8F08F206886
:1044D000816921F0100181612768386A00F00F08B6
:1044E000C0F343410229C0F30A1510D035E005217D
:1044F000CFE7816D4A1C8265032904D900218165BB
:1045000080F85CB056E6022180F85C1052E625B3D4
:1045100008EB880104EBC106716CF1B12A463846FC
:1045200007F0FCFB706C07EB4811104A28447064DC
:10453000F06C2844F064D1F8100510420DD0D1F889
:10454000000520F0804040F00040C1F8000596F8DA
:10455000500080F0010086F850002068816941F029
:104560001001816103B0BDE8F08F00000000F81F6A
:10457000002804BF012070472DE9F041044600687F
:104580008AB0B0F1A04F1CBFA0F18041B1F58021ED
:1045900003D0862119A007F0A8FD032084F891021A
:1045A000204600F047F8206807F0B8F804F1100042
:1045B000251D90E8CF118DE8CF11D4E90C01CDE98C
:1045C000080194E80F0007F043F82068012107F084
:1045D000DAFB0C3595E8CF118DE8CF11D5E908014C
:1045E000CDE9080194E80F0007F09CFA012084F857
:1045F00091020AB00020BDE8F08100002E2E2F4469
:104600007269766572732F53544D3332463778781A
:104610005F48414C5F4472697665722F5372632F15
:1046200073746D3332663778785F68616C5F686386
:10463000642E63004DF804ED006887B0A0F180415E
:10464000B1F580211CBF07B05DF804FB4FF440407A
:104650004FF00C0C0221002203238DE80F101448A8
:104660006946FFF7D7F81348016841F0005101602F
:1046700000680022032100F0005005904A2000F05D
:1046800027FE4A2000F0F4FD002203214B2000F019
:104690001FFE4B2000F0ECFD002203214D2000F016
:1046A00017FE4D2000F0E4FD07B05DF804FB0000AC
:1046B000000402403038024070477047006807F03D
:1046C0004ABBD0F8940205F0A6BC10B5044690F899
:1046D0009002012804BF022010BD012084F890023E
:1046E000206807F03CF82068012107F01DF8002041
:1046F00084F8900210BD10B5044690F8900201288D
:1047000004BF022010BD012084F89002206807F049
:1047100051FB002084F8900210BD000070B50446E3
:1047200000680D46A0F18041B1F5A8411CBFA0F181
:104730008041B1F5B0410DD0A0F18041B1F5B84153
:104740001CBFA0F18041B1F5C04103D06F211BA077
:1047500007F0CBFC002D18BFB5F5805F03D07021AA
:1047600016A007F0C2FC94F84100202824D194F848
:104770004000012820D0012184F84010242084F832
:104780004100202100222068036823F00103036018
:104790002068036823F480530360206803682B4378
:1047A00003602068036843F00103036084F841104C
:1047B000002084F8402070BD022070BD2E2E2F44B2
:1047C0007269766572732F53544D33324637787859
:1047D0005F48414C5F4472697665722F5372632F54
:1047E00073746D3332663778785F68616C5F6932F5
:1047F000635F65782E63000070B5044600680D465F
:10480000A0F18041B1F5A8411CBFA0F18041B1F5F4
:10481000B0410DD0A0F18041B1F5B8411CBFA0F16D
:104820008041B1F5C04103D09D2119A007F05DFC86
:104830000F2D03D99E2116A007F057FC94F84100D4
:10484000202822D194F8400001281ED0012184F8AC
:104850004010242084F841002022002320680168B1
:1048600021F0010101602068016821F4706141EAD2
:10487000052101602068016841F00101016084F8B0
:104880004120002084F8403070BD022070BD00003F
:104890002E2E2F447269766572732F53544D333226
:1048A000463778785F48414C5F4472697665722F6D
:1048B0005372632F73746D3332663778785F686133
:1048C0006C5F6932635F65782E63000070477047E4
:1048D00030B403689A69196812F4807F18BF11F028
:1048E000800F07D0446C4FF4807C44F00104446492
:1048F000C3F81CC012F4806F18BF11F0800F0BD0EA
:10490000D0F844C04FF480634CF0080CC0F844C0A9
:10491000D0F800C0CCF81C3012F4007F18BF11F0A2
:10492000800F07D0426C4FF4007142F002024264E3
:104930000268D161416C11F00B0F04BF30BC7047AD
:10494000416C30BC03F01EBA0268436B9169126877
:10495000002B08BF7047184770470000002804BFAD
:104960000120704770B504460068A0F18041B1F5A0
:10497000A8411CBFA0F18041B1F5B0410ED0A0F11B
:104980008041B1F5B8411CBFA0F18041B1F5C041F3
:1049900004D055A040F2A31107F0A7FBA068B0F522
:1049A000806F04D34FF4D2714FA007F09EFBE068F4
:1049B000012818BF022804D04BA040F2A51107F02F
:1049C00094FB2069002818BFB0F5004F04D046A022
:1049D0004FF4D37107F089FB6069FF2804D942A026
:1049E00040F2A71107F081FBA069002818BF012839
:1049F00010D0022818BF03280CD0042818BF05289F
:104A000008D0062818BF072804D04FF4D47136A068
:104A100007F06BFBE069002818BFB0F5002F04D049
:104A200031A040F2A91107F060FB206A002818BFEE
:104A3000B0F5003F04D02CA04FF4D57107F055FB22
:104A400094F84100002520B9204684F8405000F039
:104A500037FA242084F841002068016821F0010120
:104A60000160D4E9001020F070600861206881685E
:104A700021F400418160E06821680128A0680CBF32
:104A800040F4004040F404408860E068022802D10D
:104A900021688002486020212068426842F4004278
:104AA00042F0007242602068C26822F40042C26094
:104AB000D4F800C0D4E90402A369104340EA0320FB
:104AC000CCF80C002368D4E9070210431860206872
:104AD000026842F001020260656484F841102563B7
:104AE00084F84250002070BD2E2E2F4472697665E6
:104AF00072732F53544D3332463778785F48414CA8
:104B00005F4472697665722F5372632F73746D33CD
:104B100032663778785F68616C5F6932632E630054
:104B2000704700002DE9FF4F81B0044690F8410026
:104B30001D461646DDF838A0202840F0098194F87B
:104B40004000012800F00481012084F84000FFF7B4
:104B5000B5F80122814619230090D103204603F0C5
:104B600015FC002840F0DA800027222184F841104B
:104B7000102084F8420067646585618DFF257648C2
:104B80006763FF29666209D925854FF08073029912
:104B90002A460090204603F081FB0AE0618D4FF029
:104BA000007321850090204694F82820029903F094
:104BB00075FB608D4FF02008DFF8A0B100287DD094
:104BC000206856464D46806910F0040F64D1206875
:104BD0008169806911F0100F00F0200032D0A0B977
:104BE000B6F1FF3F0CD026B1FFF768F8401BB0428A
:104BF00006D984F8418084F8427084F8407042E01D
:104C00002068806910F0200FEAD021681020C86168
:104C10002068C0F81C802068816911F0020F18BF5D
:104C200087622068816911F0010F03D1816941F029
:104C30000101816120680421426802EA0B0242609E
:104C40006164D6E788B12068806910F0040F1CBF4A
:104C5000208D002820D12068C0F81C802068416881
:104C600001EA0B0141606764C3E726B1FFF726F84C
:104C7000401BB0420BD9606C84F8407040F02000BB
:104C8000606484F84180606C04284BD046E0206862
:104C9000806910F0040F9AD02168606A496A421C4A
:104CA00062620170208D401E0004000C2085618D21
:104CB000A1F10101618524D1608D00E025E000B300
:104CC0000022534680212046CDF8009003F05EFB81
:104CD00020BB608DFF2809D9FF22228502994FF061
:104CE00080732046009703F0D9FA0AE0608D4FF0F8
:104CF000007320852046009794F82820029903F03D
:104D0000CDFA608D00287FF45BAF4A4651462046BD
:104D100003F070FB50B1606C042803D005B0032091
:104D2000BDE8F08F05B00120BDE8F08F2068C0F825
:104D30001C802068416801EA0B01416084F84180D1
:104D400084F84270002084F8407005B0BDE8F08F10
:104D500005B00220BDE8F08F0024008000E800FECE
:104D60002DE9F84F044690F841001E469246DDF8C2
:104D70002880894620287CD194F84000012878D0EA
:104D8000012084F84000FEF799FF0122074619230D
:104D90000090D103204603F0F9FA002871D10025D4
:104DA000212084F84100102184F842106564668552
:104DB000618DFF264048C4F824A0FF29656308D907
:104DC000C3022685324649460090204603F066FA23
:104DD0000AE0618D4FF0007321854946009020461E
:104DE00094F8282003F05AFA608D00283DD03A4606
:104DF0004146204603F068FB18B1606C042843D09C
:104E00003FE0606A411C6162216800788862608DC1
:104E1000401E6085208D401E0004000C208521D19D
:104E2000608DF8B10022434680212046009703F0B0
:104E3000ADFAF8B9608DFF2809D926854FF0807347
:104E4000324649462046009503F028FA0AE0608D74
:104E50004FF00073208549460095204694F828209D
:104E600003F01CFA608D0028C1D13A464146204625
:104E700001E01DE005E003F0BDFA40B1606C0428DC
:104E800002D00320BDE8F88F0120BDE8F88F21682B
:104E900020200A4AC86121684B681A404A6084F899
:104EA000410084F84250002084F84050BDE8F88F5B
:104EB0000220BDE8F88F00000020008000E800FE1E
:104EC0004DF804ED006887B0A0F18041B1F5C04114
:104ED0001CBF07B05DF804FB4FF440504FF0040CCA
:104EE0001221012203238DE80F1010486946FEF7B6
:104EF00091FC0F48016841F0807101600068002258
:104F0000072100F0807005905F2000F0E1F95F203C
:104F100000F0AEF900220721602000F0D9F96020EE
:104F200000F0A6F907B05DF804FB0000000C024099
:104F30004038024070477047024881680278114447
:104F4000816070475C040020094810B5016841F495
:104F500000710160016841F480710160032000F07C
:104F600011FA002000F006F800F040F9002010BD12
:104F7000003C024070B50D4D04464FF47A700C4A67
:104F800029781268B0FBF1F0B2FBF0F002F050F8B3
:104F900048B9102C07D200222146501E00F098F983
:104FA00000206C6070BD012070BD00005C0400201A
:104FB000680400202DE9F04104464078002818BF1D
:104FC000012810D0022818BF03280CD0042818BFCD
:104FD000052808D0062818BF072804D062A040F290
:104FE0003F1107F082F82078012818BF002804D06C
:104FF0004FF4A0715CA007F078F86A4960780D1D45
:105000002E1D08602078002808BF286000F0A980C5
:10501000207B002818BF012804D04FF4A47152A0AF
:1050200007F063F8E07A002818BF01280CD00228A6
:1050300018BF032808D0052818BF062804D04AA0A6
:1050400040F2491107F051F8A07A00281CBF01284E
:10505000022804D044A04FF4A57107F046F8607B05
:10506000012818BF002804D03FA040F24B1107F0E0
:105070003CF8A07B012818BF002804D04FF4A6718B
:1050800039A007F032F8E07B012818BF002804D0CF
:1050900035A040F24D1107F028F8607AFF2804D3BC
:1050A00031A04FF4A77107F020F8217A042918BF26
:1050B000052938D0062918BF072934D0082918BF78
:1050C000092930D00A2918BF0B292CD00C2918BF68
:1050D0000D2928D00E2918BF0F2924D0102918BF58
:1050E000112920D0122918BF13291CD0142918BF48
:1050F000152918D0162918BF172914D0182918BF38
:10510000192910D01A2918BF1B290CD01C2918BF27
:105110001D2908D01E2918BF1F2904D012A040F253
:105120004F1106F0E2FF6068286094F80CC0E27A44
:10513000A07A617B4FEA0C77A37B47EA026294F87E
:105140000FC042EAC040657A40EA8140277A40EACF
:10515000434040EA0C40247840EA052040EA4700FA
:1051600020433060BDE8F0812E2E2F4472697665B1
:1051700072732F53544D3332463778785F48414C21
:105180005F4472697665722F5372632F73746D3347
:1051900032663778785F68616C5F636F72746578C8
:1051A0002E63000098ED00E0BFF35F8F04480021FC
:1051B0000368044A23F480330360116070470000E1
:1051C00024ED00E094ED00E0074A40F001000549BD
:1051D0001060086840F480300860BFF34F8FBFF361
:1051E0006F8F704724ED00E094ED00E01E4808B595
:1051F000016841F080510160006800F0805000902B
:105200001A48016841F480410160006800F4804060
:105210000090032000F0B6F800226FF00B0011465A
:1052200000F056F800226FF00A00114600F050F826
:1052300000226FF00900114600F04AF80022501FCA
:10524000114600F045F80022101F114600F040F80A
:105250000022901E114600F03BF80022BDE80840F5
:10526000501E114600F034B8403802404438024025
:1052700010B5040003D5CE2106A006F036FF600964
:1052800004F01F018200012002F1E0228840C2F8F0
:10529000000110BD2E2E2F447269766572732F5354
:1052A000544D3332463778785F48414C5F447269D9
:1052B0007665722F5372632F73746D33326637784D
:1052C000785F68616C5F636F727465782E6300004D
:1052D00070B5102A16460D46044603D3BA2119A00C
:1052E00006F003FF102D03D3BB2116A006F0FDFE30
:1052F00023480068C0F30223C3F10701042988BFD3
:105300000421181D072834BF0020D81E012202FAEC
:1053100001F102FA00F34A1E591E2A40314002FAF6
:1053200000F00843002C4FEA0010BDBF04F00F014D
:1053300001F1E02181F8140D04F1E021A8BF81F80A
:10534000000470BD2E2E2F447269766572732F5340
:10535000544D3332463778785F48414C5F44726928
:105360007665722F5372632F73746D33326637789C
:10537000785F68616C5F636F727465782E6300009C
:105380000CED00E010B50728044618BF062C08D025
:10539000052C1CBF042C032C03D0A22108A006F06E
:1053A000A4FE164804F007014FF6FF0302681A40F6
:1053B00042EA012141F0FD7141F08061016010BDC0
:1053C0002E2E2F447269766572732F53544D3332EB
:1053D000463778785F48414C5F4472697665722F32
:1053E0005372632F73746D3332663778785F6861F8
:1053F0006C5F636F727465782E6300000CED00E0E3
:105400001C4838B5016841F08051016000681A4DB0
:1054100000F080500090286840F480302860FEF74B
:105420004DFC0446686810F4803F09D1FEF746FC45
:10543000001BB0F57A7F15D8686810F4803FF5D06E
:10544000286840F400302860FEF738FC044668689D
:1054500010F4003F0CD100BFFEF730FC001BB0F58C
:105460007A7F01D9032038BD686810F4003FF3D07B
:10547000002038BD40380240007000402DE9F84F50
:10548000044600684FF0000820F00600474630F060
:10549000624003D18321FEA006F027FE2078DFF8CA
:1054A0002CA410F0010F1AD0606B002818BFB0F5C3
:1054B000000F03D08921F6A006F017FEDAF80000ED
:1054C00020F40000CAF80000DAF80000616B08431D
:1054D000CAF80000606B002808BF4FF00108FC4EBE
:1054E000206810F4002F1FD0E06B002818BFB0F523
:1054F000801F09D0B0F5001F18BFB0F5401F03D0C2
:105500009921E3A006F0F1FDE06B316821F4401130
:1055100008433060E06BB0F5801F08BF4FF0010812
:1055200002D0002808BF0127206810F4801F1FD078
:10553000206C002818BFB0F5800F09D0B0F5000F1F
:1055400018BFB0F5400F03D0AD21D1A006F0CDFDBE
:10555000206C316821F4400108433060206CB0F5C4
:10556000800F08BF4FF0010802D0002808BF0127B4
:10557000206810F0807F18BF4FF0010810F0200F56
:1055800000F01281206BB0F5807F18BFB0F5007F6E
:105590007CD0A0F50031B1F540711CBFA0F54031C1
:1055A000B1F5407172D0A0F58021B1F540711CBFFA
:1055B000A0F5A021B1F5407168D0A0F5C021B1F5EA
:1055C00040711CBFA0F5E021B1F540717DD0A0F580
:1055D0000021B1F540711CBFA0F51021B1F540715B
:1055E00073D0A0F52021B1F540711CBFA0F530218A
:1055F000B1F5407169D0A0F54021B1F540711CBFF3
:10560000A0F55021B1F540715FD0A0F56021B1F552
:1056100040711CBFA0F57021B1F5407155D0A0F5C7
:105620008011B1F540711CBFA0F58811B1F5407132
:105630004BD0A0F59011B1F540711CBFA0F59811A9
:10564000B1F5407141D0A0F5A011B1F540711CBF7A
:10565000A0F5A811B1F5407137D0A0F5B011B1F5A2
:1056600040711CBFA0F5B811B1F540712DD0A0F567
:10567000C011B1F540711CBFA0F5C811B1F5407162
:1056800023D0A0F5D011B1F5407100E01DE01CBFA2
:10569000A0F5D811B1F5407117D0A0F5E011B1F522
:1056A00040711CBFA0F5E811B1F540710DD0A0F517
:1056B000F011B1F540711CBFA0F5F811B1F54071C2
:1056C00003D0C82172A006F010FD8248016841F0A5
:1056D000805101600068804D00F080500090286883
:1056E00040F480702860FEF7E9FA8146286810F4DB
:1056F000807F0AD1FEF7E2FAA0EB0900642800F2ED
:105700004E84286810F4807FF4D0DFF8D091D9F867
:10571000000010F4407032D0218E01F440718142BB
:105720002DD0D9F80000D9F8001020F4407041F4D1
:105730008031C9F80010D9F8001021F48031C9F87F
:105740000010C9F80000D9F8000010F0010F16D0C1
:10575000FEF7B4FA0546D9F8000010F0020F08BFB2
:1057600041F2883B0BD100BFFEF7A8FA401B584519
:1057700000F21584D9F8000010F0020FF4D0206B6D
:105780004FF4407181431CBFDAF8000020F4F81098
:1057900000F03A82CAF80000208ED9F80010C0F359
:1057A0000B000843C9F80000207810F0100F12D049
:1057B000A06B002818BFB0F1807F04D034A04FF454
:1057C000817106F092FC306820F0807030603068A3
:1057D000A16B084330602088414D10F4804F12D0F7
:1057E000606E00281CBFB0F5803FB0F5003F04D0CC
:1057F0004FF4867126A006F078FC606E296821F4CB
:10580000403108432860208810F4004F12D0A06E69
:1058100000281CBFB0F5802FB0F5002F04D01CA0CD
:105820004FF48B7106F061FCA06E296821F44021D1
:1058300008432860206810F4803F12D0E06E0028F2
:105840001CBFB0F5801FB0F5001F04D04FF490715D
:105850000FA006F04AFCE06E296821F440110843CD
:105860002860206810F4003F3DD0206F00281CBF46
:10587000B0F5800FB0F5000F04D005A04FF495717E
:1058800006F033FC206F296821F44001084329E029
:105890002E2E2F447269766572732F53544D333216
:1058A000463778785F48414C5F4472697665722F5D
:1058B0005372632F73746D3332663778785F686123
:1058C0006C5F7263635F65782E6300000838024086
:1058D0008C3802404038024000700040703802406E
:1058E000903802402860207810F0400F14D0606C8F
:1058F000002818BF012809D0032818BF022805D0A6
:105900004FF49A71AFF2780006F0EFFB606C2968F3
:1059100021F0030108432860207810F0800F14D094
:10592000A06C002818BF042809D00C2818BF08282C
:1059300005D04FF49F71AFF2A80006F0D6FBA06C23
:10594000296821F00C0108432860208810F4807F2A
:1059500014D0E06C002818BF102809D0302818BFD8
:10596000202805D04FF4A471AFF2DC0006F0BDFB97
:10597000E16C286820F0300008432860208810F48B
:10598000007F14D0206D002818BF402809D0C028FF
:1059900018BF802805D04FF4A971AFF20C1006F0A3
:1059A000A4FB206D296821F0C001084328602088ED
:1059B00010F4806F17D0606D002818BFB0F5807F9D
:1059C0000BD0B0F5407F18BFB0F5007F05D04FF485
:1059D000AE71AFF2441006F088FB606D296821F4C7
:1059E000407108432860208810F4006F17D0A06D24
:1059F000002818BFB0F5806F0BD0B0F5406F18BF0E
:105A0000B0F5006F05D04FF4B371AFF27C1006F023
:105A10006CFBA06D296821F4406108432860208850
:105A200010F4805F17D0E06D002818BFB0F5805FDC
:105A30000BD0B0F5405F18BFB0F5005F05D04FF454
:105A4000B871AFF2B41006F050FBE06D296821F494
:105A5000405108432860208810F4005F17D0206E62
:105A6000002818BFB0F5804F0BD0B0F5404F18BFDD
:105A7000B0F5004F05D04FF4BD71AFF2EC1006F059
:105A800034FB206E296821F44041084328602068D7
:105A900010F4800F11D0A06FB0F1806F18BF0028F4
:105AA00005D04FF4C271AFF2182006F01EFBA06FB4
:105AB000296821F0806108432860206810F4001FE5
:105AC00016D0E06FB0F1006F18BF002805D04FF47A
:105AD000C771AFF2442006F008FBE06F296821F09F
