:020000040800F2
:10000000706C01200D0200087B6400088D5300080D
:1000100079640008F5050008299400080000000034
:10002000000000000000000000000000F56400086F
:100030002D08000800000000A1640008F764000813
:1000400027020008270200082702000827020008EC
:10005000270200082702000861090008270200089B
:1000600027020008270200082702000827020008CC
:1000700027020008270200082702000827020008BC
:100080002702000827020008710400084907000839
:10009000F9050008050600082702000827020008E5
:1000A000270200082702000827020008270200088C
:1000B000270200082702000827020008270200087C
:1000C000270200082702000827020008270200086C
:1000D000270200082702000827020008270200085C
:1000E000270200082702000827020008270200084C
:1000F000270200082702000827020008270200083C
:1001000027020008270200084166000827020008AD
:100110002702000827020008C966000815670008C2
:10012000210800082702000827020008270200080B
:1001300027020008310800082702000827020008EB
:1001400027020008270200082702000827020008EB
:1001500027020008270200082702000827020008DB
:100160002702000827020008896400087D6400084F
:10017000270200089564000827020008000000001C
:1001800027020008270200082702000827020008AB
:10019000270200082702000827020008270200089B
:1001A000270200082702000827020008270200088B
:1001B0002702000827020008270200089D530008B4
:1001C00091530008270200080000000027020008E1
:1001D000270200082702000827020008270200085B
:1001E000270200082702000827020008270200084B
:1001F0002702000827020008DFF80CD000F0B6F84C
:1002000000480047A9EA0008706C012006488047B2
:1002100006480047FEE7FEE7FEE7FEE7FEE7FEE7EB
:10022000FEE7FEE7FEE7FEE7E1650008F9010008EA
:100230002DE9F05F0546002092469B46884606461B
:10024000814640241BE0284641464746224600F0AE
:100250007DF853465A46C01A914110D311461846AC
:10026000224600F064F82D1A67EB01084F4622463B
:100270000120002100F05BF817EB00094E41201E21
:10028000A4F10104DFDC484631462A464346BDE876
:10029000F09F40EA01039B0703D009E008C9121F41
:1002A00008C0042AFAD203E011F8013B00F8013B30
:1002B000521EF9D27047D2B201E000F8012B491E5C
:1002C000FBD270470022F6E710B513460A460446F3
:1002D0001946FFF7F0FF204610BD421C10F8011B25
:1002E0000029FBD1801A704730B504460020034630
:1002F00000E05B1C934203D2E05CCD5C401BF8D075
:1003000030BD30B50B46014600202022012409E013
:1003100021FA02F59D4205D303FA02F5491B04FABE
:1003200002F52844151EA2F10102F1DC30BD202A9D
:1003300004DB203A00FA02F1002070479140C2F13C
:10034000200320FA03F3194390407047202A04DB6E
:10035000203A21FA02F00021704721FA02F3D0403E
:10036000C2F120029140084319467047064C074DE0
:1003700006E0E06840F0010394E807009847103475
:10038000AC42F6D3FFF73CFFB4110108D4110108C9
:1003900070B58C1810F8015B15F0070301D110F847
:1003A000013B2A1106D110F8012B03E010F8016B74
:1003B00001F8016B5B1EF9D12B0705D40023521EF7
:1003C0000DD401F8013BFAE710F8013BCB1A921C5F
:1003D00003E013F8015B01F8015B521EF9D5A1425D
:1003E000D8D3002070BD10B50246806B016C11F0AF
:1003F000500F05D0806BC16C1046BDE81040084717
:10040000016C41F40071016401688A6812F0405F78
:1004100004BF8269002A17D1CA6A12F4700F1CBF88
:100420008A6812F4806F0FD14A6822F020024A6075
:10043000016C21F480710164016C11F4805F03D1BF
:10044000016C41F00101016400F0A0FB10BD10B58A
:10045000806B40210164416C41F00401416400F073
:10046000FAFB10BD10B5806B00F0F4FB10BD00006E
:10047000014800F0F1BB0000604300202DE9F04787
:100480002E4F002584B080464FF47A744FF008094F
:100490004FF0140A09EB45008DF8040028480123A9
:1004A0005221009401AA03F0A5FA25480223522103
:1004B000009402AA03F066F907EB4506BDF80810A0
:1004C0000AEB45000123318052218DF8040001AA76
:1004D0001B48009403F08EFA19480223522100941D
:1004E00002AA03F04FF9691CBDF80800CDB2F080F4
:1004F000032DCFD31A208DF8040011480123522177
:10050000009401AA03F076FA0D48022352210094C8
:1005100002AA03F037F9BDF80800B8813868C8F8B6
:1005200000007868C8F80400B868C8F80800B889FE
:10053000A8F80C0004B0BDE8F087000034430020A8
:10054000084B002030B583B03F2180208DF8041087
:1005500002238DF80500522124484FF47A7501AA30
:10056000009503F047FA224CA8B1002220464FF430
:10057000804102F0F6FA002220464FF4004102F0DA
:10058000F0FA00BF4FF40041204602F0E6FA642082
:1005900001F012FCF6E73D218DF804100C208DF8D7
:1005A0000500124802235221009501AA03F022FA05
:1005B000A8B1002220464FF4804102F0D2FA002276
:1005C00020464FF4004102F0CCFA00BF4FF4004146
:1005D000204602F0C2FA642001F0EEFBF6E703B019
:1005E0001920BDE8304001F0E7BB0000084B0020B7
:1005F000000C0240FEE70000014800F066BF00006A
:1006000080440020014800F060BF000080440020CA
:100610002DE9F0474A4C012600254FF4C040214601
:100620000E2765614FF47E48C4E90656C4E900050B
:10063000C4E90285256101F17800C4E9086700F08A
:1006400011FEC4E905654FF44A40E661C4E90005BE
:10065000C4E9028521462561C4E9086701F17800F3
:1006600000F000FE0221E661C4E9051538032146C9
:10067000C4E90005C4E90285256101F17800C4E9F7
:10068000086700F0EFFD0320E661C4E905054FF6B9
:10069000E07AC4F808A0C4E90085C4E903562146FD
:1006A000C4E9086701F1780000F0DCFD0420E66190
:1006B000C4E905054FF4C449C4F808A0C4E900958D
:1006C000C4E903562146C4E9086701F1780000F047
:1006D000C9FDC4F800900520E6612146C4E905057E
:1006E000C4E90158C4E90356C4E9086701F1780078
:1006F00000F0B8FD04F1780001F014F9012104F1D3
:10070000780000F01FFD022104F1780000F01AFDCE
:10071000102104F1780000F015FD04F16001094892
:100720004FF446730622CD608D600B600A610D7533
:10073000057045708570C57005714571BDE8F0871D
:1007400008440020FC030020014800F0BEBE000069
:100750008044002009490A4808B50A4A09880B0A5A
:10076000037041706B4611880A0A8270C17002469C
:10077000054901F1180000F0FCFC08BDF003002061
:10078000FC030020F20300206844002001490020FF
:1007900048717047FC0300200149012048717047EF
:1007A000FC03002070B4BFF34F8FBFF36F8F194964
:1007B0000020174E0860316841F400313160BFF30A
:1007C0004F8FBFF36F8F14490860BFF34F8F081F1F
:1007D000124943F6FF750068C0F34E3CC0F3C904EC
:1007E00005EA4C12204600BF42EA80730B60401EAF
:1007F000FAD2BCF1010CF3D2BFF34F8F306840F452
:1008000080303060BFF34F8FBFF36F8F70BC704785
:1008100014ED00E050EF00E084ED00E060EF00E058
:10082000014801F0D3B80000A84300207047000041
:10083000014801F061BC00002C7C00202DE9F04152
:10084000044621B14FF40061C800C4E90201E06927
:10085000002500280CBF4FF4806028463C4B402602
:100860002268D4E9021C176841EA0C01084307EA30
:10087000030140F4007008431060206807680120FD
:1008800001F09AFA20680760206846602068466890
:10089000012001F091FA20684FF64172466020680D
:1008A00085602068C56020688169114041F0800141
:1008B000816120688669012001F07EFA20688661E6
:1008C0002068C5612068C569012001F075FA2068BB
:1008D000204AC561206800F580508169114041F0CF
:1008E000040141F008718161206800F5805085693C
:1008F000012001F061FA2168174801F580518D61EE
:10090000216801F580510860206800F58050056875
:10091000012001F051FA206800F580500560A069BF
:10092000012808D1206800F58050C16941F04001DC
:1009300041F48031C1616069084A8188116401789D
:10094000D0F8010041EA00205064BDE8F0810000C9
:100950000F8120FF233FDEF88020C102008002408B
:10096000012001F0BDBF0000134A4DF8044D92F87C
:1009700009C00123BCF1000F19D1547A02F1080318
:100980004FF0000C02F804C0547A02EB840460605B
:10099000507A00F803C0507A431C53723A246346DD
:1009A0002F22303008704C708A7081F803C01846CE
:1009B0005DF8044B70470000644A01207047000056
:1009C00070B482B04FF0000CCDF800C090F83C201D
:1009D000012A01BF022002B070BC7047012280F8DA
:1009E0003C200A680724654B0568092A1DD90A3A84
:1009F000EE6802EB420204FA02F226EA0202EA6020
:100A00000A689A4206D102680C7AD56845EA0464FD
:100A1000D4601CE004680A3A8D6802EB4202E66882
:100A200005FA02F23243E26011E02E6902EB420263
:100A300004FA02F226EA02022A6102680C788D6842
:100A4000166904EB440405FA04F4344314614A685B
:100A50001F24072A15D20568521E02EB82026E6B14
:100A600004FA02F226EA02026A6302680D790C882F
:100A70006D1E566BA4B205EB8505AC403443546340
:100A80002CE005680D2A14D2D21F2E6B02EB8202D5
:100A900004FA02F226EA02022A630C7902680D883F
:100AA000E61FACB206EB8605166BAC40344314630C
:100AB00014E00D3AEE6A02EB820204FA02F226EA30
:100AC0000202EA6202680C790D880D3CD66AADB26A
:100AD00004EB840405FA04F43443D462284A04681D
:100AE000944204BF0C68122C05D1D2F8044344F49C
:100AF0008004C2F804430468944233D10C689C42D9
:100B000018BF112C2ED1D2F8044344F40004C2F8CB
:100B100004430968994225D11A491B4A0968B1FB67
:100B2000F2F101EB81014900009101911AD0B1F17C
:100B3000004F1DD20029D8BF002105DD11F00101B1
:100B400002D0009A521E0092019A491C521C9142F6
:100B5000B8BF009B06DA5B1E891C9142A3F101031A
:100B60000093F8DB80F83CC002B0002070BC7047F6
:100B70000099491E0091FCD1F4E70000120000101A
:100B8000002001405004002040420F00274903226A
:100B900070B591ED001A9FED260ADFED260AB8EE3A
:100BA000411A9FED253ADFED252ADFED251A21EECA
:100BB000001A0C1FB7EE082A21EE201A31EE431A54
:100BC00051EE221ABCEEE11A11EE100A80B220801A
:100BD00091ED011AB8EE411A21EE000A80EE021AD8
:100BE00021EE200ABCEEC00A10EE101A61801549F1
:100BF0000CF0F0FE144E154D3078032205EB40202A
:100C000000F5E87120880CF0E5FE114904226088A7
:100C10000CF0E0FE3078042205EB402000F5EA718C
:100C20002088BDE870400CF0D5BE0000F403002021
:100C30003333533A00007A440000C842CDCCCC3D57
:100C400000002042F83800204400002056390020DF
:100C5000FC3800207047704770B504460068026891
:100C60004168C2F34002002AC1F3401118BF0029B5
:100C70002DD0216C11F0100F03D1216C41F40071C3
:100C80002164816811F0405F04BFA169002917D178
:100C9000C16A11F4700F1CBF816811F4806F0FD10D
:100CA000416821F020014160206C20F480702064B4
:100CB000206C10F4805F03D1206C40F001002064B0
:100CC0002046FFF763FF21686FF01200086020687C
:100CD00001684368C1F38002002AC3F3C01118BF42
:100CE000002934D0216C11F0100F03D1216C41F494
:100CF00000512164816811F4401F21D1816B11F4EE
:100D0000401F1CBF816811F4806F19D1416811F434
:100D1000806F01BF816811F0405FA16900290FD188
:100D2000416821F080014160206C20F480502064F3
:100D3000206C10F4807F03D1206C40F0010020640F
:100D40002046FFF73BFE21686FF00C00086020682A
:100D50000168436811F0010FC3F380111EBF002921
:100D6000006810F0010F0AD0206C40F4803020643D
:100D7000204600F0DBF821686FF001000860206871
:100D800001684368C1F34012002AC3F3806114BFB5
:100D9000002970BD616C6FF0200541F002016164B3
:100DA00005602046FFF757FF2068056070BD000012
:100DB00070B504004FF0000604BF012070BD206C28
:100DC000002528B96564204684F83C5000F0B0F84E
:100DD000206C10F0100F18BF012603D0304684F8A5
:100DE0003C5070BD206C20F4885040F0020020641C
:100DF0004B486FF07061D0F8042322F44032C0F801
:100E00000423D0F8042363681A43C0F8042320683D
:100E1000426822F48072426020682269436843EA93
:100E2000022242602068426822F0407242602068DC
:100E3000A26843681A4342602068826822F4006214
:100E400082602068E26883681A438260A06AC842B0
:100E50002068816821F070618160206804BF81682A
:100E600021F040510CD0A16A826811438160206852
:100E7000816821F0405181602068E16A82681143F5
:100E800081602068816821F0020181602068A16989
:100E9000826842EA41018160206A0028206804BF1C
:100EA000416821F400610FD01E49426842F400629B
:100EB00042602068426822F4604242602068636AAF
:100EC000426801EB43311143416020681649C26A10
:100ED00022F47002C2622068A28BC36A01EB025145
:100EE0001943C1622068816821F400718160206823
:100EF000216B826842EA412181602068816821F487
:100F00008061816020686169826842EA8121816034
:100F10006564206C20F0020040F0010020645DE771
:100F20000020014000E0FFFF0000F0FF70470000DC
:100F300070B50646006886B0A0F18041B1F59031E9
:100F40001CBF06B070BD1B48016841F48071016090
:100F5000006803210025029500F4807005900C20A4
:100F6000CDE900011448694601F0C6FC134C144B4E
:100F70001815C4E90035A560810061610201C4E96A
:100F80000350C4E9062525622046656200F00CFE88
:100F900018B197210BA008F048FAB4630022082189
:100FA000A663122002F004FF122002F0F5FE06B044
:100FB00070BD00004438024000080240A8430020F1
:100FC000106402402E2E2F5372632F6164632E63D0
:100FD0000000000030B583B004460025134600959C
:100FE00090F83C00012802BF022003B030BD012070
:100FF00084F83C002068826812F0010F2DD1D0F8EF
:1010000008C04A4A4CF0010CC0F808C048480068C3
:10101000B0FBF2F010EB4000009001901DD0B0F159
:10102000004F7DD20028D8BF002005DD10F0010060
:1010300002D0009A521E0092019A401C521C90420B
:10104000B8BFDDF800C008DA801CACF1010C90429A
:10105000ACF1010CCDF800C0F6DB2068826812F01C
:10106000010F59D0226C22F0010222F4C06242F436
:1010700080722264406810F4806F05D0206C20F4E8
:10108000005040F480502064206C10F4805F08BF52
:10109000656403D0606C20F00600606484F83C5006
:1010A0006FF02200D4F838C0224ACCF83C20D4F8A3
:1010B00038C0214ACCF84020D4F838C01F4ACCF8B8
:1010C0004C20226810602068426842F080624260D2
:1010D0002068826842F4807282602268A06B02F10C
:1010E0004C0C0A46614600F019FE1549D1F804037C
:1010F00010F01F0F206807D0884204BF816811F0EC
:10110000405F05D008E00BE0816811F0405F03D13B
:10111000816841F08041816003B04FF0000030BD34
:101120000098401E0090FCD197E7000040420F005D
:1011300050040020E7030008650400084F0400087D
:101140000020014090F82020012A1CBF90F82020A8
:10115000022A06D0416A41F4802141624FF0010029
:1011600070470068426942EA010141614FF00000A6
:101170007047F0B490F820C0BCF1010F1CBF90F88C
:1011800020C0BCF1020F07D0416A41F480214162C6
:10119000F0BC4FF001007047D0F800C0DCF8084008
:1011A00014F0806F01BFDCF8084014F0006FDCF829
:1011B000084014F0805F4ED0DCF808C04FF0010505
:1011C0004FF4C074CCF3016C05FA0CF51D608B680C
:1011D000A3B1CD684E68076843EA050304EB0C151C
:1011E00043EAC6037B5105684FF4C27303EB0C134B
:1011F0000E69EE50097D01290ED108E00E88CB68FA
:10120000056843EA465304EB0C16AB51EBE7016863
:10121000CD5845F48075CD504FF4C677D2F80560AF
:1012200001683B1F157907EB0C1703EB0C1345EA1C
:101230000625CD51157804EB0C11D2F80120066873
:1012400045EA0222F2500068425842F00102425040
:10125000F0BC00207047416A41F400114162F0BCCB
:10126000012070474DF8044D90F820300268012BA2
:101270001CBF90F82030022B08D0416A41F4802135
:1012800041625DF8044B4FF0010070474048A2F105
:10129000804CBCF5505C18BF0246D2F80032824246
:1012A00043F00103C2F800320CD1D2F8000220F45E
:1012B0007C50C2F80002D2F800024B6A40EA0320D8
:1012C000C2F80002087D4FF0010CD2F81C320CFA73
:1012D00000F08343C2F81C32CB69C3B9D2F80C3298
:1012E0008343C2F80C32B1F80CC04B684C696CF304
:1012F0001F4302EBC40CCCF84032B1F808C00B68B5
:101300004C696CF31F4302EBC40CCCF84432CB693C
:10131000012B18D1D2F80C320343C2F80C32B1F8C9
:1013200000C04B684C696CF31F4302EBC40CCCF853
:101330004032B1F808C0CB684C696CF31F4302EB34
:10134000C40CCCF844328B69002BD2F804320CBFA9
:1013500083430343C2F804320B69002BD2F81432E2
:101360000CBF83430343C2F81432096A012904D134
:10137000D2F81C120843C2F81C02D2F8000220F076
:101380000100C2F800025DF8044B00207047000025
:10139000006400407047F0B490F820C0BCF1010F29
:1013A0001CBF90F820C0BCF1020F07D0416A41F485
:1013B00080214162F0BC4FF00100704711B101295A
:1013C00008D00EE0D0F800C0DCF80CC01CF0030F11
:1013D00007D165E0D0F800C0DCF810C01CF0030FA6
:1013E0005ED004684FF4D87C0CEB011C54F80C4020
:1013F00014F004049460046854F80C4007BF640DB2
:101400001460E40854604FF4DA7507682C1D261D3B
:1014100057F80CC005EB0115002904EB0114CCF3BF
:10142000400CC2F80CC006EB011C0668765906F0A9
:101430000F06166106687659C6F307269661066898
:1014400075594FEA15455561026812591A700268BC
:1014500012594FEA12225A70026812594FEA124288
:101460009A70026812594FEA1262DA70026852F8F2
:101470000C201A71026852F80C204FEA12225A719D
:10148000026852F80C204FEA12429A71026852F830
:101490000C204FEA1262DA7109D001290DD011E057
:1014A000416A41F400114162F0BC012070470068BC
:1014B000C16841F02001C16004E00068016941F0A9
:1014C00020010161F0BC002070472DE9F05F054666
:1014D000006800244669D0F804908768D0F80CB002
:1014E000D0F810A016F0010FD0F8188025D017F012
:1014F000010F07D00121816017F0020F7CD0284630
:1015000000F044FA17F4807F09D0286817F4007FB0
:101510004FF48071816070D0284600F040FA17F4D3
:10152000803F0AD0286817F4003F4FF48031816073
:1015300000F0B980284600F034FA16F0080F18BF02
:101540001BF0100F04D02968102044F40074C86008
:1015500016F0040F4FF0080718BF1BF0080F04D057
:101560002868C760284600F0A3F916F0020F07D0DC
:101570002868C06810F0030F1CBF284600F09AF9D5
:1015800016F0400F18BF1AF0100F04D02968102071
:1015900044F48064086116F0200F18BF1AF0080F99
:1015A00004D028680761284600F096F916F0100F5D
:1015B00007D02868006910F0030F1CBF284600F010
:1015C0008DF916F4003F18BF19F0100F05D02968E7
:1015D00010204860284600F0A3F916F4803F18BF99
:1015E00019F0080F04D028684760284600F0DAF99F
:1015F00016F4004F78D001E035E044E019F0040F14
:101600006FD016F4807F1CBF18F0010F44F0010466
:1016100016F4007F1CBF18F0020F44F0020416F409
:10162000806F1CBF18F0040F44F0040416F4006F20
:1016300018BF18F0700F54D008F07000402808BF91
:1016400044F0400448D03EDC102808BF44F00804B1
:1016500042D0202808BF44F010043DD0302808BFF5
:1016600044F0200438E017F0040F18BF4FF4006472
:101670007FF448AF17F0080F0ABF28464FF4805494
:1016800000F082F93EE717F4806F18BF44F400546D
:101690007FF445AF17F4006F0ABF284644F4804436
:1016A00000F07CF93BE717F4802F18BF44F40044A6
:1016B0007FF443AF17F4002F0ABF284644F4803468
:1016C00000F06EF939E7502808BF44F0800403D0D9
:1016D000602808BF44F480742868816921F0700193
:1016E0008161296804204860002C08BFBDE8F09F94
:1016F000686A204368622846FFF74CFEBDE8F09F09
:10170000002804BF0120704770B5044690F82000FF
:10171000002804BF204600F089F82068016821F005
:101720000201016001F022FA0546206805264068A2
:1017300010F0020F0AD000BF01F018FA401B0A286F
:1017400017D82068406810F0020FF5D120680168B2
:1017500041F00101016001F009FA05462068406886
:1017600010F0010F12D100BF01F000FA401B0A284F
:1017700007D9606A40F40030606284F8206001207C
:1017800070BD2068406810F0010FEDD0207E012868
:10179000206801680CBF41F0800121F080010160E8
:1017A000607E0128206801680CBF41F0400121F0F3
:1017B00040010160A07E0128206801680CBF41F053
:1017C000200121F020010160E07E012820680168ED
:1017D0000CBF21F0100141F010010160207F0128B1
:1017E000206801680CBF41F0080121F00801016088
:1017F000607F0128206801680CBF41F0040121F0DE
:101800000401016004F108000FC8084342EA030123
:10181000D4E9002C01430020ACF101030B43D36158
:101820000121606284F8201070BD00004DF804EDC5
:10183000006887B0A0F18041B1F5C8411CBF07B076
:101840005DF804FB1848016841F000710160006810
:101850000221002200F0007005900320CDE9000174
:1018600009236946CDE902201048049301F044F8A9
:1018700000220121132002F09BFA132002F08CFABF
:1018800000220121142002F093FA142002F084FABD
:1018900000220121152002F08BFA152002F07CFABB
:1018A00007B05DF804FB000040380240000C024025
:1018B00070470000064B0021064A10B5FFF76BFD8C
:1018C000044803490088BDE8104080B207F02EBFED
:1018D0000204002030440020704700000D4B01211D
:1018E0000D4A10B5FFF757FD0B48816949B1022930
:1018F00018BF10BD00880749BDE8104080B208F04D
:1019000003BF04480549407801281CBF022810BDC8
:10191000087010BD0A0400204C4400204000002044
:101920007047000070B5044690F82000012804D0EC
:10193000606A40F4002060621CE0022084F820000D
:101940002068016821F00101016001F00FF90546EE
:101950002068406810F0010F13D000BF01F006F9B5
:10196000401B0A2808D9616A052041F400316162F0
:1019700084F82000012070BD2068406810F0010F3D
:10198000ECD10020606270BD7047000002484FF447
:10199000004101F0E2B80000000C024070477047BF
:1019A00070477047704790F83510022903D08021A6
:1019B000416501207047052180F8351000680168F5
:1019C00021F0010101600020704700002DE9F8437B
:1019D00004464FF00009734A0821CDF800904FF4F7
:1019E0001650A56D94F85C3012682E68B2FBF0F8C2
:1019F00001FA03F3334211D02068026812F0040F99
:101A00000CD0026822F00402026094F85C0001FA33
:101A100000F0A860606D40F00100606594F85C0023
:101A2000012707FA00F0304209D02168496911F016
:101A3000800F04D0A860606D40F00200606594F8EB
:101A40005C1004208840304209D02168096811F0F8
:101A5000020F04D0A860606D40F00400606594F847
:101A60005C1010208840304220D02168096811F0B5
:101A7000080F1BD0A8602068016811F4802F09D0DE
:101A8000006810F4002F02D0A16C79B10CE0216C39
:101A900051B90BE0016811F4807F03D1016821F096
:101AA00008010160216C09B12046884794F85C1058
:101AB0002020884030424AD02168096811F0100F78
:101AC00045D0A86094F8350005282068016809D041
:101AD00011F4802F2BD0006810F4002F24D0E16B7C
:101AE00021B332E021F0160101602068416921F044
:101AF00080014161206C002804BFA06C002804D044
:101B00002068016821F00801016094F85C004FF042
:101B10003F0101FA00F0A86084F8349084F8357031
:101B2000216DD1BBBDE8F883616C71B90FE001682C
:101B300011F4807F07D1016821F01001016084F861
:101B4000349084F83570E16B09B120468847606DA8
:101B5000002808BFBDE8F883606D10F0010F17D0B2
:101B60004FF0050084F835002068016821F001017C
:101B70000160009800F101000090404504D8206801
:101B8000006810F0010FF4D184F8349084F83570B7
:101B9000E16C002908BFBDE8F883204601B0BDE82C
:101BA000F0430847500400202DE9F047044600F0B8
:101BB000DDFF002C054604BF0120BDE8F0870026AC
:101BC000022084F8346084F835002068016821F030
:101BD000010101602068006810F0010F11D000BF02
:101BE00000F0C4FF401B052806D9202161650320B1
:101BF00084F83500BDE8F0872068006810F0010F18
:101C0000EED1D4E9023CD4E90010D4E904721843BF
:101C10004CEA0708D4E90653D4E908C740EA0809A2
:101C2000086849EA0202DFF8E8802A4342EA030230
:101C300000EA080042EA0C02042F42EA000003D145
:101C4000D4E90B231A4310430860D4F800C00123E1
:101C5000606ADCF81410042821F0070140EA010250
:101C600038D1D4E90A100A4318B3A56955B1B5F5BE
:101C7000005F14D000291CBF0129022921D00329AB
:101C80001CD027E019B1012905D0022922D110F07A
:101C9000807F1FD015E0B0F1C07F1BD111E081B172
:101CA000012907D002290CD0032908BFB0F1C07F59
:101CB00007D00FE010F0807F03D10BE010F0807FA1
:101CC00008D04FF04000606584F835304FF00100D7
:101CD000BDE8F087CCF8142020680E49C2B2A2F10A
:101CE00010026FF30900A1FB02210B4A4FEA111108
:101CF0000329525CE26588BF001D3F21A065914029
:101D00008160666584F835300020BDE8F08700000A
:101D10003F8010E0ABAAAAAA54100108F0B490F8D2
:101D200034404FF0000C012C846D02BF0220F0BC47
:101D3000704790F83570012680F834600025012F37
:101D40001CBF4FF0020C80F8345002D0F0BC60464B
:101D50007047022680F83560456505682E6826F4D0
:101D600080262E6005686B608368402B036803BF84
:101D70009A600268D16099601CBF0168CA6090F8DF
:101D80005C103F2202FA01F1A16001680A6842F08A
:101D900016020A6001684A6942F080024A61016CD9
:101DA00021B101680A6842F008020A60006801680F
:101DB00041F001010160C9E770B5044600F0D6FEAC
:101DC000B4F1FF3F054602D004480078044400F017
:101DD000CDFE401BA042FAD370BD00004404002099
:101DE0002DE9F047054690F845000C46012804BF50
:101DF0000220BDE8F08701260220002C85F845600E
:101E000085F844007FD0D4E90017D4E90223A868FC
:101E10000F43E96842EA0309D4E904C8D4E9062378
:101E200047EA0909276A49EA0009286849EA0C0CC7
:101E30004CEA0808D4F824C048EA0108016848EAD6
:101E400002093C4A49EA0303D4F828803B43114085
:101E500043EA0C0242EA080211430160286807685D
:101E60000120FFF7A9FF28680760D4E90B03D4E934
:101E70000D2CD4E90F17184342EA0C082A6840EAEF
:101E800008000843D4E9113C3843184340EA0C00E9
:101E90005060286847680120FFF78EFF28684FF6DA
:101EA000417247602968E06C88602968206DC860CD
:101EB000B4F85470D4E917C1A36D286843EA0C0341
:101EC00041EA0748D4E919C7816943EA080343EAAC
:101ED0000C03114043EA07021143816128688769B6
:101EE0000120FFF769FF28688761D4E91B012A6890
:101EF0000843D0612868C4690120FFF75DFF2868A6
:101F0000C46110E0FFE7D5E90223286801681A439D
:101F100021F4904111430160286804680120FFF713
:101F20004BFF28680460002085F8446085F8450070
:101F3000BDE8F0870F8120FF2DE9F00390F845C040
:101F40000024BCF1010F02BF0220BDE8F00370477E
:101F50004FF001098162002B80F845904FF0020C90
:101F600080F844C01DD9A3F1010644F2F4554FF0A6
:101F7000004700BFC4EBC41801EB441C08EB480841
:101F800002EB8808CCF80070B442CCE901583ABFA3
:101F90000CF12008CCF80C80CCF80C10641C9C428E
:101FA000E8D30368002203F58053D96080F8449099
:101FB00080F845201046BDE8F00370472DE9F00396
:101FC00090F845C00024BCF1010F02BF0220BDE81B
:101FD000F00370474FF00108C162002B80F8458084
:101FE0004FF0020C80F844C084BF5D1E4FF4801691
:101FF0001FD900BFC4EBC41C0CEB4C0701EB441C05
:1020000002EB8707CCF80060CCF80870C7692FB9DD
:10201000DCF8007047F44009CCF80090AC423ABFBD
:102020000CF12007CCF80C70CCF80C10641C9C420E
:10203000E0D30368002203F58053196180F84480DF
:1020400080F845201046BDE8F0037047704790F8CF
:102050004510012904BF022070470122022180F8A7
:102060004520002380F84410816AD1F800C01CF09C
:10207000004F38D1D1F800C01CF4807F20D0D0F8B8
:1020800038C00CF1010CC0F838C0BCF1010F08BF1A
:1020900001634163D1F800C0CCF30D4CACF1040CEA
:1020A000C0F83CC0D0F830C0DCF808C0C0F840C070
:1020B000C968816280F8442080F84530002070476C
:1020C000D1F800C01CF4007F05D08263C0E90C1376
:1020D000C968816207E0D0F838C00CF1010CC0F883
:1020E00038C0C968816280F8442080F845300120FA
:1020F000704790F84400704770B5044600680025AA
:1021000000F580500126416911F0400F0CD02046A7
:1021100000F044FA2168402001F58051486184F8BC
:10212000446084F845500EE0406910F0010F0AD079
:10213000204600F073FB206800F58050466184F86B
:10214000446084F845504FF48030216801F5805197
:102150004861206800F58050406910F4004F08BFC6
:1021600070BD2046FFF772FF21684FF4004001F573
:102170008051486184F8446084F8455070BD000087
:102180002DE9F04F85B04FF000050400029502BF25
:10219000012005B0BDE8F08F94F8440020B9204636
:1021A00084F8455000F064F9A748016841F4804183
:1021B0000160006800F480400090A448016821F4A8
:1021C000000101600268216A11430160206800F586
:1021D0008050016841F00101016000F0C7FC064633
:1021E000206800F58050006810F0010F15D000BF86
:1021F00000F0BCFC801BB0F5FA7F07D9032084F8FF
:10220000440084F8455005B0BDE8F08F206800F523
:102210008050006810F0010FEAD12068006920F0BA
:102220001C0602F019FA8A4A8A4902448A4238BFD7
:1022300046F0080615D3884A884902448A4238BFC6
:1022400046F00C060DD38649864A0144914208D3D4
:102250008549864A0844904234BF46F0040646F059
:1022600010062068066100214FF40042204600F06D
:10227000D7FA00284FF001067CD1FF20FFF79CFD24
:102280006068002877D000F071FC4FF4784A8146EE
:102290004FF0820B41F2883794F8440082282CD00A
:1022A00084F844B02068228A01690AEAC22201F057
:1022B0001C01114321F0020141F04108C0F81080D7
:1022C00000F054FC18F0010F054610D000F04EFC51
:1022D000401BB0F5803F05D3002084F8446084F8AB
:1022E00045000AE02068006910F0010FEED1206877
:1022F000406980B2029084F8446000F037FCA0EBA3
:102300000900B84209D901212046FEF797FA0020BA
:1023100084F8446084F8450052E0029810F0040FFD
:10232000BAD0002120464FF4805200F079FA0028FC
:1023300071D100F01BFC80464FF0000B94F8440074
:1023400082282FD0822084F844002168228A0869DC
:102350000AEAC22200F01C00104320F0020040F004
:102360004109C1F8109000F001FC19F0010F054679
:1023700012D001E04FE043E000F0F8FB401BB0F565
:10238000803F04D384F8446084F845B00AE02068B4
:10239000006910F0010FECD12068406980B2029012
:1023A00084F8446000F0E2FBA0EB0800B8420BD9CF
:1023B00001212046FEF742FA84F8446084F845B0D3
:1023C00005B00320BDE8F08F029810F0200FB5D0C3
:1023D0001021204602AA00F09BF8E0B9029810F004
:1023E000040F1ABF4FF40061E160C4F80CB010F0A4
:1023F000020F12BFC4F808B04FF48040A06018E08C
:10240000D4E90210C00840EA510082B220460021FF
:1024100000F006FA48B101212046FEF70FFA84F8D1
:10242000446005B00120BDE8F08F40F6FF70FFF773
:10243000C3FC00212046FEF701FA84F8446005B091
:102440000020BDE8F08F000044380240043801400D
:1024500000D3CEFEC0E1E40040F1E9FD40787D010B
:1024600000796CFC005A6202001F0AFA80F0FA023E
:10247000F0B5006887B0A0F18041B1F520311CBFF4
:1024800007B0F0BD1E48016841F0007101600168AD
:1024900001F000710591016841F0806101600168FF
:1024A00001F080610591016841F000610160006800
:1024B00002240025694600F00060059003260B27E2
:1024C00032208DE8F1000F4800F016FA86206946A8
:1024D0008DE8F1000C4800F00FFA4FF460506946A7
:1024E0008DE8F100094800F007FA002202213D20A2
:1024F00001F05EFC3D2001F04FFC07B0F0BD000094
:10250000303802400008024000000240000402404F
:102510002DE9F041044690F844001746822804BF94
:102520000220BDE8F08182204FF4784384F8440013
:102530005A11206802EA8112B4F810C0016903EA56
:10254000CC2301F01C011943114321F0020141F099
:102550000106066100F00AFB16F0010F05464FF078
:10256000010612D000F002FB401BB0F5803F07D3FC
:10257000002084F8446084F845000320BDE8F08121
:102580002068006910F0010FECD12068406980B22A
:10259000386084F844600020BDE8F0817047F8B5E9
:1025A000044690F84500012804BF0220F8BD01252B
:1025B000022084F8455084F8440000262068016811
:1025C00041F0080101602068006800902846FFF78C
:1025D000F3FB2168009808602068016841F004015D
:1025E00001602068006800900120FFF7E5FB21688A
:1025F00000980860206800F58050816941F48011DE
:102600008161206800F58050806900900120FFF70B
:10261000D3FB206800F5805100988861206800F5A0
:102620008050816941F400518161206800F580503B
:10263000816941F00201816184F84450002084F8EE
:102640004560F8BDF8B5044690F84500012804BF80
:102650000220F8BD0125022084F8455084F844008A
:10266000206800F58050816921F400518161206863
:1026700000F58050816921F0020181612068002607
:10268000016821F0040101602068006800900120C9
:10269000FFF792FB216800980860206800F58050E1
:1026A000816941F480118161206800F58050806962
:1026B00000900120FFF780FB206800F58051009812
:1026C00088612068016821F00801016020680068C5
:1026D00000900120FFF770FB21680098086084F8E3
:1026E0004450002084F84560F8BD90F84520002350
:1026F000012A04BF022070472DE9F001012780F86C
:102700004570022280F844204FF0000679B1D0F8DD
:102710002CC0DCF8002012F0004F10D0122180F8FD
:10272000441080F845600120BDE8F001704780F852
:10273000447080F845600120BDE8F001704740F228
:10274000F455A94221D9B1FBF5F205FB1214B1FBF6
:10275000F5F2002C18BF521C012A16D0002A48D9C5
:10276000C2F10104A2F1010CC4EBC41404EB440453
:1027700001EB8401C1F30C04C16AD1F8008028F098
:102780004058C1F80080D3B912E0DCF80020C1F352
:102790000C0142F04052CCF80020C26A5160C16A7C
:1027A0000A6842F000420A60C16AC968C16220E05A
:1027B000C16AD1F8008048F08058C1F80080C16A31
:1027C00063454D6008D1C16AD1F8008048F00058D7
:1027D000C1F80080C16A4C60C16AD1F800805B1CFE
:1027E000934248F00048C1F80080C16AC968C162DC
:1027F000C3D3016801F580514A6912F0040F05D076
:1028000004224A61016801F580514E6080F84470ED
:1028100080F845600020BDE8F00170477047000077
:1028200070B5044690F84400422804BF022070BDF1
:1028300042204FF4784384F844001FFA82FC206859
:102840005E11258A06EA81120169C0F814C003EA04
:10285000C52301F01C0021681843104340F0030613
:102860000E6100F083F916F0010F05464FF00106E6
:1028700012D000BF00F07AF9401BB0F5803F06D3BC
:10288000002084F8446084F84500032070BD20686F
:10289000006910F0010FEDD184F84460002070BD94
:1028A0000C48012110B500F053F9002818BF10BDE5
:1028B000012003F037FB084800224FF4004100F0EC
:1028C00050F906494E2088704420BDE8104004F0BD
:1028D000C5B9000000100240000C0240600000205A
:1028E00004490A68024208BF704710B50860FFF744
:1028F000D7FF10BD143C01402DE9F84F8F4E002248
:1029000001274FF003094FF00F0800BF0B6807FACB
:1029100002FC03EA0C03634540F00A814C68022C78
:1029200018BF122C13D14FEAD204D1F810B04FEADD
:10293000427A00EB8404256A4FEADA6A08FA0AFE52
:102940000BFA0AFA25EA0E054AEA0505256291F80E
:1029500004B04FEA4204D0F800A00BF0030B09FAD0
:1029600004F50BFA04FB2AEA050A4BEA0A0AC0F846
:1029700000A0D1F804A0BAF1010F18BFBAF1020FFC
:1029800005D0BAF1110F18BFBAF1120F19D1D0F852
:1029900008A0D1F80CB02AEA050A0BFA04FB4BEAAE
:1029A0000A0AC0F808A0D0F804A091F804B02AEAF6
:1029B0000C0CCBF3001B0BFA02FA4AEA0C0CC0F821
:1029C00004C0D0F80CC0D1F808A02CEA050C0AFA13
:1029D00004F444EA0C0CC0F80CC0D1F804C01CF09C
:1029E000805F7DD0356822F0030C4FEA827445F495
:1029F000804535604FEA147435680CF1804C0CF555
:102A0000983C05F48045009508FA04FADCF808586B
:102A1000A0F1804BBBF5003B25EA0A0508BF4FF04B
:102A2000000A48D0A0F1804ABAF5013A08BF4FF039
:102A3000010A40D0A0F1804ABAF5023A08BF4FF02F
:102A4000020A38D0A0F1804ABAF5033A08BF4FF025
:102A5000030A30D0A0F1804ABAF5043A08BF4FF01B
:102A6000040A28D0A0F1804ABAF5053A08BF4FF011
:102A7000050A20D0A0F1804ABAF5063A08BF4FF007
:102A8000060A18D0A0F1804ABAF5073A08BF4FF0FD
:102A9000070A10D0A0F1804ABAF5083A08BF4FF0F3
:102AA000080A08D0A0F1804ABAF5093A0CBF4FF0E5
:102AB000090A4FF00A0A0AFA04FA214C4AEA050503
:102AC000CCF808584D68D4F800C015F4803F2CEAC3
:102AD000030C18BF4CEA030C1A4DC4F800C000E008
:102AE00026E04C68D5F800C014F4003F2CEA030C33
:102AF00018BF4CEA030CDFF850A0C5F800C04C68C2
:102B0000DAF800C014F4801F2CEA030C18BF4CEA5A
:102B1000030C0E4CCAF800C04D68D4F800C015F480
:102B2000001F2CEA030C18BF4CEA030CC4F800C0C9
:102B3000521C102AFFF4EAAEBDE8F88F4438024078
:102B4000003C0140043C0140083C01400C3C014079
:102B50000069084018BF0120704742695140416137
:102B60007047002A08BF09048161704701488068E6
:102B70007047000044040020D0F8940204F0A9BC7F
:102B8000D0F8940204F0B9BC006806F0BCB8006844
:102B900006F0BDB801EB810100EBC10090F85C00CC
:102BA000704701EB810100EBC100C06C704710B5AC
:102BB000044690F89002012804BF022010BD0120B5
:102BC00084F89002206806F0AEF8002084F89002A5
:102BD00010BD2DE9F04784B0044694F890C2DDE9B9
:102BE0000D600C9FBCF1010F02BF022004B0BDE8D4
:102BF000F08700254FF0010A01EB810C02F07F08FD
:102C000004EBCC0C84F890A24FEAD2198CF83D501A
:102C10008CF83830ACF840008CF839108CF83F60F4
:102C20008CF83A808CF83B908CF83C700097CDE99A
:102C30000160206806F0DEF884F8905204B0BDE828
:102C4000F08770472DE9F00301EB810C4FF002058E
:102C500000EBCC0C069FDDE90786002F8CF83B20AB
:102C60008CF83F3006BF03248CF842408CF8425069
:102C70004FF0000433B1012B37D0022B10D0032BBF
:102C800017D020E0012F08BF002A1CD1002E04BF5E
:102C900001228CF8512014D09CF851202AB310E066
:102CA0001AB19CF8502002B30BE09CF8512042B9B5
:102CB0001BE01AB19CF85020BAB102E09CF85120F8
:102CC0009AB18CF84250CCE911868CF85C40CCF873
:102CD0004C408CF839100CF138018CF85D40027CC6
:102CE0000068BDE8F00306F0FFB88CF84240EAE760
:102CF0002DE9F04FD0F80080002783B0044640460D
:102D000006F00DF801281CBF03B0BDE8F08F206865
:102D100006F0D0FA002804BF03B0BDE8F08F2068A9
:102D200006F0C8FA10F4001F03D021684FF4001019
:102D30004861206806F0BEFA10F4801F03D02068B6
:102D40004FF480114161206806F0B4FA10F0806FF2
:102D500003D021684FF080604861206806F0AAFA2D
:102D600010F0020F4FF002051CBF2068456120687B
:102D700006F0A0FA10F0005F10D0D8F8400420F060
:102D80002E00C8F840042046FFF7FAFE2068012113
:102D900006F01EFA21684FF000504861206806F0E6
:102DA00089FA10F0807F5CD02668D6F84004019044
:102DB000D6F8400420F02E000090019810F0020F89
:102DC0000ED0019810F0010F06D0B06920F000512C
:102DD000B1612046FFF7D0FE009840F0020000905D
:102DE000019810F0080F32D0009840F008000090D1
:102DF000019810F0040F1CD0A06902280DD0E068E3
:102E0000032804BF4EF66020C6F80404204600F0F4
:102E100084FB2046FFF7B0FE19E0019800F4C020C3
:102E2000B0F5802F206814BF0121022106F0D0F9EF
:102E3000ECE7204600F070FBD6F8400420F02E00AE
:102E4000C6F840042068816941F000518161019811
:102E500010F0200F00981CBF40F020000090C6F832
:102E60004004206806F026FA10F0080F4FF008061C
:102E700004D0204600F055FB20684661206806F02B
:102E800019FA10F0007F00F07382206806F027F82E
:102E90008146A068002884BF01264FF0040B40F251
:102EA000638200BF06FA07F010EA090F00F05682AD
:102EB00008EB4710D0F8000507F0FF0A10F4004FA8
:102EC000206800EB4A15D5F8080500F0040000F072
:102ED000278140B1C5F808B5D5F80C0540F00200CF
:102EE000C5F80C0541E0D5F8080510F0200F1CBF0F
:102EF0002020C5F8080538D1D5F8080510F0080FCE
:102F000017D0D5F80C250AEB8A03052004EBC30C77
:102F1000102142F00203C5F80C3508228CF85D0040
:102F2000C5F80815C5F808255146206805F0FBFED0
:102F30001BE0D5F8080510F4806F16D0D5F80C0505
:102F400040F00200C5F80C052068514605F0EBFE84
:102F50000AEB8A021020C5F80805082104EBC20319
:102F6000820183F85D10C5F80825D5F8080510F42E
:102F7000007F40F02181D5F8080510F0010F46D000
:102F8000206950B1D5F810150AEB8A0204EBC20093
:102F9000C1F31201826C511AC1640AEB8A0104EB7D
:102FA000C1000090002180F85D608165C5F808656A
:102FB00090F83F00002818BF022802D003280ED046
:102FC0001BE0D5F80C0540F00200C5F80C052068A0
:102FD000514605F0A8FE1020C5F808050DE0D5F80B
:102FE0000005324640F00050C5F8000500985146F3
:102FF00080F85C602046FFF724FE009890F85000AF
:1030000080F00101009880F8501000F0A7B9D5F8C1
:10301000080510F0020F2FD0D5F80C050AEB8A0234
:1030200020F00201C5F80C1504EBC20090F85D1009
:10303000012908BF80F85C6000F08781052900F055
:10304000B081062918BF082904D0032900F0B581F2
:1030500000F07BB9816D4A1C8265032900F2A881CA
:1030600000F0ABB9D5F8001521F0804141F00041E6
:10307000C5F8001500F069B9D5F8080510F0800F03
:1030800018D0D5F80C250AEB8A03062104EBC300FF
:1030900042F00202C5F80C25826D521C826580F850
:1030A0005D105146206805F03EFE8020C5F80805F9
:1030B00000F054B9D5F8080510F0100F00F04E815B
:1030C0000AEB8A0104EBC10090F83F10032904D0F9
:1030D000002918BF02290ED01EE04FF000018165C3
:1030E000D5F80C0540F00200C5F80C0520685146E3
:1030F00005F019FE10E000218165216961B9032105
:1031000080F85D10D5F80C0540F00200C5F80C05FC
:103110002068514605F007FE1020C5F808051DE19E
:1031200040B1C5F808B5D5F80C0540F00200C5F867
:103130000C0513E1D5F8080510F0200F1CD00AEBA0
:103140008A024FF02001C5F8081504EBC20090F880
:103150003D10012958D1002180F83D10022280F84D
:103160005C20D5F80C0540F00200C5F80C0520687D
:10317000514605F0D8FDF1E0D5F8080510F0400FF4
:1031800015D00AEB8A0104EBC100002180F85DB084
:1031900080F83D608165D5F80C0540F00200C5F867
:1031A0000C052068514605F0BEFD40207EE7D5F8AD
:1031B000080510F4007F0CD0D5F80C0540F0020093
:1031C000C5F80C052068514605F0ADFD4FF40070C0
:1031D0006CE7D5F8080510F0010F16D00AEB8A024B
:1031E000002104EBC20000908165D5F80C0540F089
:1031F0000200C5F80C052068514605F094FDC5F89D
:103200000865009880F85D60A8E0D5F8080510F022
:10321000080F14D00820C5F80805D5F80C0540F0B3
:103220000200C5F80C052068514605F07CFD0AEB4C
:103230008A02052004EBC20181F85D008EE0D5F81A
:10324000080510F0100F1DD00AEB8A01002204EBD4
:10325000C100032190F83D308265002B80F85D109D
:1032600002BF90F83C10002980F83D60D5F80C05AD
:1032700040F00200C5F80C052068514605F053FDEA
:10328000102013E7D5F8080510F0800F12D0D5F8FC
:103290000C0540F00200C5F80C052068514605F009
:1032A00042FD0AEB8A02062104EBC202802082F86A
:1032B0005D10FBE6D5F8080510F4806F17D0D5F83F
:1032C0000C0540F00200C5F80C052068514605F0D9
:1032D0002AFD1020C5F808050AEB8A02810104EBDB
:1032E000C2030822C5F8081583F85D2036E0D5F83A
:1032F000080510F0020F31D0D5F80C050AEB8A0250
:1033000020F00201C5F80C1504EBC20090F85D1026
:1033100001290BD0032914BF0429022113D0052948
:103320003FD0062918BF08293DD00EE090F83F1085
:1033300080F85C60022908D190F8511081F00101F9
:1033400080F8511001E080F85C100221C5F80815E2
:10335000514690F85C202046FFF773FCA0687F1C64
:10336000B8423FF69FAD00BF21684FF00070486142
:10337000206805F09FFF10F0100F04BF03B0BDE8F8
:10338000F08F2068816921F0100181612768386A17
:1033900000F00F08C0F343410229C0F30A1510D012
:1033A00035E00521CFE7816D4A1C8265032904D9E8
:1033B0000021816580F85CB054E6022180F85C1041
:1033C00050E625B308EB880104EBC106716CF1B13E
:1033D0002A46384605F072FF706C07EB4811104A18
:1033E00028447064F06C2844F064D1F81005104251
:1033F0000DD0D1F8000520F0804040F00040C1F829
:10340000000596F8500080F0010086F85000206812
:10341000816941F01001816103B0BDE8F08F0000C7
:103420000000F81F002804BF012070472DE9F0417B
:10343000044603208AB084F89102204600F02AF85E
:10344000206805F039FC04F11000251D90E8CF112B
:103450008DE8CF11D4E90C01CDE9080194E80F0003
:1034600005F0C4FB2068012105F05DFF0C3595E8EF
:10347000CF118DE8CF11D5E90801CDE9080194E815
:103480000F0005F01DFE012084F891020AB0002013
:10349000BDE8F0814DF804ED006887B0A0F18041EF
:1034A000B1F580211CBF07B05DF804FB4FF440402C
:1034B0004FF00C0C0221002203238DE80F1014485A
:1034C0006946FFF719FA1348016841F0005101609D
:1034D00000680022032100F0005005904A2000F00F
:1034E00067FC4A2000F058FC002203214B2000F02A
:1034F0005FFC4B2000F050FC002203214D2000F027
:1035000057FC4D2000F048FC07B05DF804FB0000BC
:10351000000402403038024070477047006805F0F0
:10352000EABED0F8940204F038B810B5044690F81A
:103530009002012804BF022010BD012084F89002EF
:10354000206805F0DAFB2068012105F0BBFB0020B4
:1035500084F8900210BD10B5044690F8900201283E
:1035600004BF022010BD012084F89002206805F0FD
:10357000F1FE002084F8900210BD4DF8044D90F843
:103580004120202A27D190F84020012A23D001236E
:1035900080F8403024224FF0000C202380F8412096
:1035A0000268146824F0010414600268146824F4AA
:1035B00080541460026814682143116001680A682D
:1035C00042F001020A6080F8413080F840C00020DB
:1035D0005DF8044B70475DF8044B022070474DF8CE
:1035E000044D90F84120202A25D190F84020012A4E
:1035F00021D0012380F8403024224FF0200C0024F9
:1036000080F841200268136823F001031360026808
:10361000136823F4706343EA0121116001680A68AA
:1036200042F001020A6080F841C080F8404000206A
:103630005DF8044B70475DF8044B022070477047FB
:10364000704730B403689A69196812F4807F18BF14
:1036500011F0800F07D0446C4FF4807C44F00104DB
:103660004464C3F81CC012F4806F18BF11F0800FBF
:103670000BD0D0F844C04FF480634CF0080CC0F875
:1036800044C0D0F800C0CCF81C3012F4007F18BF42
:1036900011F0800F07D0426C4FF4007142F002022B
:1036A00042640268D161416C11F00B0F04BF30BC61
:1036B0007047416C30BC01F0C3BE0268436B916936
:1036C0001268002B08BF704718477047002804BFD6
:1036D0000120704770B5044690F84100002520B9DC
:1036E000204684F8405000F049FA242084F8410034
:1036F0002068016821F001010160D4E9001020F088
:10370000706008612068816821F400418160E06890
:1037100021680128A0680CBF40F4004040F4044038
:103720008860E068022802D1216880024860202178
:103730002068426842F4004242F000724260206811
:10374000C26822F40042C260D4F800C0D4E9040286
:10375000A369104340EA0320CCF80C002368D4E9A5
:103760000702104318602068026842F001020260FC
:10377000656484F84110256384F84250002070BDD0
:10378000704700002DE9F04F83B0044690F84100E7
:103790001E4615468846DDF830B0202840F02081CE
:1037A00094F84000012800F01B81012084F84000BB
:1037B000FFF7DCF90122814619230090D10320464E
:1037C00002F0D6F8002840F0F1800027222184F88A
:1037D0004110102084F8420067646685C8F3090030
:1037E0000190618D40F47F0ADFF8FCC14AF0807AD5
:1037F0006763FF294FF0FF0065620BD920854AF40B
:103800001055216845F000454A6822EA0C022A4317
:103810004A6011E0618D2185226894F82810019D8D
:1038200045EA0141556841F4105125EA0C0C41F07C
:1038300002414CEA01015160618D4FF020080029DE
:103840007ED020685E464D46806910F0040F66D138
:1038500020688169806911F0100F00F0200033D0DA
:10386000A8B900BFB6F1FF3F0CD026B1FFF77EF933
:10387000401BB04206D984F8418084F8427084F835
:10388000407043E02068806910F0200FEAD0216882
:103890001020C8612068C0F81C802068816911F080
:1038A000020F18BF87622068816911F0010F03D1F0
:1038B000816941F001018161206804224B4943681C
:1038C000194041606264D6E790B12068806910F0C9
:1038D000040F1CBF208D002821D120684349C0F867
:1038E0001C802068426802EA010141606764C2E707
:1038F00026B1FFF73BF9401BB0420BD9606C84F84E
:10390000407040F02000606484F84180606C0428BE
:1039100050D04BE02068806910F0040F98D02168E7
:10392000606A496A421C62620170208D401E000478
:10393000000C2085618DA1F10101618529D100E094
:103940002BE0608D28B300225B4680212046CDF815
:10395000009002F00DF848BB608DFF2809D9FF20C8
:103960002085216822484A6822EA000040EA0A00CD
:103970000EE0608D2085216894F82800019B1C4A88
:1039800043EA00404B6840F0007023EA0202104313
:103990004860608D00287FF454AF4A46594620465F
:1039A00002F01AF850B1606C042803D003B0032071
:1039B000BDE8F08F03B00120BDE8F08F20680B490F
:1039C000C0F81C80206842681140416084F8418042
:1039D00084F84270002084F8407003B0BDE8F08F96
:1039E00003B00220BDE8F08FFF67FF0300E800FE90
:1039F000FF63FF032DE9F84F044690F84100984615
:103A00001546DDF828B08A4620287BD194F840007E
:103A1000012877D0012084F84000FFF7A7F80122A1
:103A2000074619230090D103204601F0A1FF00288A
:103A300043D14F49212200264FF0FF09102084F87E
:103A40004120CAF3090A84F842004AF47F00666400
:103A500040F08070A4F82A80628DDFF818816562DA
:103A6000FF2A054666630CD9A4F8289045F4005255
:103A7000206842F00042436823EA0101114341609B
:103A80000FE0608D2085206894F8282043684AEA7A
:103A9000024242F4005223EA010142F00242114381
:103AA0004160608D00283FD03A465946204601F0DB
:103AB000FDFF18B1606C042842D03EE0606A411CF2
:103AC0006162216800788862608D401E6085208D6B
:103AD000401E0004000C208523D1608D08B3002215
:103AE0005B4680212046009701F042FF28BB608D95
:103AF000FF2808D9A4F828902068416821EA080125
:103B000029430DE030E0608D2085206894F828106E
:103B100042684AEA014141F0007122EA0802114379
:103B20004160608D0028BFD13A465946204601F0D9
:103B300053FF40B1606C042802D00320BDE8F88F29
:103B40000120BDE8F88F206820210B4AC161206860
:103B500043681A40426084F8411084F842600020B3
:103B600084F84060BDE8F88F0220BDE8F88F0000BF
:103B7000FF67FF03FF63FF0300E800FE4DF804ED5D
:103B8000006887B0A0F18041B1F5C0411CBF07B00B
:103B90005DF804FB4FF440504FF0040C1221012259
:103BA00003238DE80F1010486946FEF7A5FE0F4865
:103BB000016841F08071016000680022072100F077
:103BC000807005905F2000F0F3F85F2000F0E4F8CB
:103BD00000220721602000F0EBF8602000F0DCF804
:103BE00007B05DF804FB0000000C024040380240C2
:103BF00070477047024881680278114481607047BD
:103C000044040020094810B5016841F400710160C6
:103C1000016841F480710160032000F0F9F8002090
:103C200000F006F800F076F8002010BD003C0240DD
:103C300070B50D4D04464FF47A700C4A297812681D
:103C4000B0FBF1F0B2FBF0F001F01EF948B9102C16
:103C500007D200222146501E00F0AAF800206C6016
:103C600070BD012070BD00004404002050040020FD
:103C7000DFF858C0F0B443780CF10402111DCCF801
:103C800000300378002B04BF002010601BD0436875
:103C90001360057BC37A827A90F80DC02F07847B6E
:103CA00047EA0367C57B47EAC242467A42EA8C424A
:103CB000037A42EA444242EA0542007842EA062296
:103CC00042EA430210430860F0BC704798ED00E000
:103CD000BFF35F8F044800210368044A23F4803354
:103CE000036011607047000024ED00E094ED00E0F7
:103CF000074A40F0010005491060086840F4803030
:103D00000860BFF34F8FBFF36F8F704724ED00E063
:103D100094ED00E01E4808B5016841F08051016053
:103D2000006800F0805000901A48016841F480411A
:103D30000160006800F480400090032000F068F803
:103D400000226FF00B00114600F032F800226FF0F5
:103D50000A00114600F02CF800226FF0090011460D
:103D600000F026F80022501F114600F021F8002232
:103D7000101F114600F01CF80022901E114600F0A2
:103D800017F80022BDE80840501E114600F010B898
:103D90004038024044380240410900F01F008A00C8
:103DA000012102F1E02201FA00F0C2F8000170479F
:103DB000164B30B41B68C3F30223C3F1070CBCF1EC
:103DC000040F88BF4FF0040C1C1D072C34BF0023C8
:103DD000DB1E012404FA0CFC04FA03F5ACF1010427
:103DE0002140A5F1010C99400CEA02021143002880
:103DF0004FEA0111B8BF00F00F0000F1E020B4BF9E
:103E000080F8141D80F8001430BC70470CED00E001
:103E1000074900F007004FF6FF030A681A4042EA1C
:103E2000002040F0FD7040F08060086070470000A6
:103E30000CED00E01C4838B5016841F0805101608C
:103E400000681A4D00F080500090286840F48030DF
:103E50002860FEF78BFE0446686810F4803F09D1A5
:103E6000FEF784FE001BB0F57A7F15D8686810F461
:103E7000803FF5D0286840F400302860FEF776FED9
:103E80000446686810F4003F0CD100BFFEF76EFED8
:103E9000001BB0F57A7F01D9032038BD686810F4A3
:103EA000003FF3D0002038BD403802400070004091
:103EB0002DE9F84F04460078DFF824A44FF00007FE
:103EC00010F0010F3E460FD0DAF8000020F4000099
:103ED000CAF80000DAF80000616B0843CAF8000075
:103EE000606B002808BF0127FE4D206810F4002FEA
:103EF0000ED0E06B296821F4401108432860E06B84
:103F0000B0F5801F08BF012702D0002808BF012696
:103F1000206810F4801F0ED0206C296821F4400125
:103F200008432860206CB0F5800F08BF012702D03D
:103F3000002808BF0126206810F0807F18BF0127E5
:103F400010F0200F74D0E848016841F08051016002
:103F50000068DFF8989300F080500090D9F80000D6
:103F600040F48070C9F80000FEF700FE8046D9F8E2
:103F7000000010F4807F0BD1FEF7F8FDA0EB0800E5
:103F8000642800F27882D9F8000010F4807FF3D022
:103F9000DFF85C93D9F8000010F4407032D0218E25
:103FA00001F4407181422DD0D9F80000D9F80010F9
:103FB00020F4407041F48031C9F80010D9F80010A5
:103FC00021F48031C9F80010C9F80000D9F80000C8
:103FD00010F0010F16D0FEF7C9FD8046D9F8000099
:103FE00010F0020F08BF41F2883B0BD1FEF7BEFD77
:103FF000A0EB0800584500F23E82D9F8000010F00E
:10400000020FF3D0206B4FF4407181431CBFDAF8EC
:10401000000020F4F81000F0ED8000BFCAF80000A6
:10402000208ED9F80010C0F30B000843C9F8000037
:10403000207810F0100F07D0286820F080702860DA
:104040002868A16B084328602188AA4811F4804F92
:1040500005D0616E026822F440321143016021886C
:1040600011F4004F05D0A16E026822F440221143E2
:104070000160216811F4803F05D0E16E026822F4EE
:10408000401211430160216811F4003F05D0216FF7
:10409000026822F4400211430160217811F0400FC0
:1040A00005D0616C026822F003021143016021789F
:1040B00011F0800F05D0A16C026822F00C021143B0
:1040C0000160218811F4807F05D0E16C026822F044
:1040D000300211430160218811F4007F05D0216D69
:1040E000026822F0C00211430160218811F4806F40
:1040F00005D0616D026822F440721143016021888D
:1041000011F4006F05D0A16D026822F440621143E2
:104110000160218811F4805F05D0E16D026822F40E
:10412000405211430160218811F4005F05D0216ED7
:10413000026822F4404211430160216811F4800FAB
:1041400005D0A16F026822F08062114301602168EE
:1041500011F4001F0AD0E16F026822F000621143DF
:104160000160E16FB1F1006F08BF0126216811F015
:10417000080F18BF012611F4802F05D0616F026867
:1041800022F0407211430160216811F4000F06D043
:10419000D4F88010026822F0805211430160216837
:1041A00011F0806F06D0D4F88410026822F000521B
:1041B00011430160206810F0006F06D0D4F8880029
:1041C000296821F0007108432860206810F0805FA2
:1041D00006D0D4F88C00296821F08061084328605B
:1041E000DFF81481012F1CBF2068B0F1007F0CD0D4
:1041F000B4E000BF20F44071DAF8000021F0704113
:1042000020F4F81040EA010008E7D8F8000020F098
:104210008060C8F80000FEF7A9FC0746D8F8000047
:1042200010F0006F0AD000BFFEF7A0FCC01B64288E
:1042300055D8D8F8000010F0006FF5D121782F483C
:1042400011F0010F12D0616B81B9227A63680168A5
:10425000D0F800C09B01C1F3014143EA0143CCF314
:10426000036143EA016141EA02710160216811F4CE
:10427000002F03D0E26BB2F5801F06D011F4801F2F
:104280001CD0216CB1F5800F18D1D4F804C001689E
:10429000227B03684FEA8C1CC1F301414CEA014CBC
:1042A000C3F302714CEA026242EA017101602968BB
:1042B000626A21F01F01521E11432960216811F02A
:1042C000807F22D0218A636802684FEA831C0368DA
:1042D0004CEA014CC2F303614CEA016210E0B6E023
:1042E000083802408C3802404038024000700040DC
:1042F0007038024090380240003802408438024052
:10430000C3F3027142EA01710160216811F0007F7C
:104310000CD06368228A94F80CC0217A9B0143EA8E
:10432000024242EA0C6242EA01710160D8F80000E0
:1043300040F08060C8F80000FEF718FC0746D8F887
:10434000000010F0006F09D1FEF710FCC01B6428BC
:104350007DD8D8F8000010F0006FF5D0EEB3D8F893
:10436000000020F08050C8F80000FEF7FFFB064672
:10437000D8F8000010F0005F0AD000BFFEF7F6FB8F
:10438000801B642877D8D8F8000010F0005FF5D1C2
:1043900021683E4811F4002F01D0E26B22B111F4E4
:1043A000801F1FD0216CE9B9D4F814C00168227EA7
:1043B00003684FEA8C1CC1F301414CEA014CC3F382
:1043C00002714CEA026242EA0171016029686FF0F1
:1043D000FF03A26A21F4F85100E054E003EB02224B
:1043E00011432960216811F4001F14D0E16FB1F16D
:1043F000006F10D1238C626901684FEA821C026849
:10440000C1F303614CEA034343EA0163C2F302715F
:1044100043EA01710160217811F0080F16D061693B
:10442000026806684FEA811C237FC2F30362C6F369
:1044300001414CEA014141EA026141EA0371016034
:104440002868E16A20F440300843286000E012E068
:10445000D8F8000040F08050C8F80000FEF786FB56
:104460000446D8F8000010F0005F0CD1FEF77EFB88
:10447000001B642802D90320BDE8F88FD8F800009B
:1044800010F0005FF2D00020BDE8F88F88380240BD
:10449000002804BF012070472DE9F047DFF89C8118
:1044A00004460E46D8F8000000F00F00B0420CD2CF
:1044B000D8F8000020F00F003043C8F80000D8F80A
:1044C000000000F00F00B04265D120685C4D10F094
:1044D000020F14D010F0040F03D0286840F4E0500D
:1044E0002860207810F0080F03D0286840F460405E
:1044F0002860A068296821F0F0010843286020782E
:1045000010F0010F34D060684E49012820D00968AE
:10451000022822D011F0020F3DD0296821F00301BA
:1045200008432860FEF722FB29680746606801F00F
:104530000C01B1EB800F18BF41F2883918D000BFD1
:10454000FEF714FBC01B48450BD90320BDE8F087DC
:10455000096811F4003FE0D11DE011F0007FDCD1CB
:1045600019E06168286800F00C00B0EB810FE7D11A
:10457000D8F8000000F00F00B0420FD9D8F80000C2
:1045800020F00F003043C8F80000D8F8000000F019
:104590000F00B04202D00120BDE8F087207810F073
:1045A000040F05D0E068296821F4E0510843286031
:1045B000207810F0080F06D02069296821F46041A6
:1045C00041EAC00028602048296811F00C0226D07A
:1045D0004110042A08BF084621D0082A1FD11B4CCD
:1045E0002268236802F03F0213F4800F08D020688D
:1045F0000023C0F38810A0FB0101FBF719FE07E0C0
:1046000021680023C1F38811A1FB0001FBF710FE14
:104610002168C1F30141491C4900B0FBF1F0296850
:104620000B4AC1F30311515CC8400A4908600020DD
:10463000FFF7FEFA0020BDE8F0870000003C0240D2
:1046400008380240003802400024F40004380240D8
:104650005C10010850040020014800687047000009
:10466000500400202DE9F84F04004FF0000B00F03B
:10467000C8812078DFF89093E44D10F0010F5DD0F1
:10468000D9F8000000F00C0004280BD0D9F8000085
:1046900000F00C0008280ED105F10400006810F4A9
:1046A000800F08D0286810F4003F47D060680028C9
:1046B00000F0A78142E06068B0F5803F04BF286841
:1046C00040F480300AD010B1B0F5A02F11D0286886
:1046D00020F480302860286820F4802028606068FA
:1046E000D0B1FEF743FA0646286810F4003F08D020
:1046F00024E0286840F480202860286840F4803056
:10470000ECE7FEF733FA801B642800F23281286858
:1047100010F4003FF5D011E0FEF728FA06462868AD
:1047200010F4003F0AD000BFFEF720FA801B642877
:1047300000F21F81286810F4003FF5D1207810F0B6
:10474000020F4CD0D9F8000010F00C0F19D0D9F896
:10475000000000F00C00082804D1AD48006810F4F7
:10476000800F0ED0E0680028286824D040F00100B7
:104770002860FEF7FBF90646286810F0020F09D002
:1047800011E0286810F0020F1CBFE06801280AD071
:1047900000F037B9FEF7EAF9801B02287ED82868B6
:1047A00010F0020FF6D02069296821F0F80141EAE3
:1047B000C000286013E020F001002860FEF7D6F961
:1047C0000646286810F0020F09D000BFFEF7CEF9A8
:1047D000801B022862D8286810F0020FF6D12078DA
:1047E00010F0080F2BD08B4F60690028386813D069
:1047F00040F001003860FEF7B9F90646386810F05D
:10480000020F1CD1FEF7B2F9801B022846D8386887
:1048100010F0020FF6D012E020F001003860FEF731
:10482000A5F90646386810F0020F08D0FEF79EF989
:10483000801B022832D8386810F0020FF6D1207899
:1048400010F0040F7AD0DFF8D081D8F8000010F013
:10485000805F0CD1D8F8000040F08050C8F800000C
:10486000D8F800004FF0010B00F0805000906B4F23
:10487000386810F4807F16D1386840F48070386052
:10488000FEF774F90646386810F4807F0BD100BF3C
:10489000FEF76CF9801B64286BD800E069E038688B
:1048A00010F4807FF4D0A0685D4E012804BF30680A
:1048B00040F0010009D008B1052813D0306820F07D
:1048C00001003060306820F004003060A06841F2E0
:1048D000883AC8B1FEF74AF90746306810F0020F6F
:1048E00008D022E0306840F004003060306840F0CA
:1048F0000100EAE7FEF73AF9C01B504539D83068A5
:1049000010F0020FF6D010E0FEF730F907463068DD
:1049100010F0020F09D000BFFEF728F9C01B504568
:1049200027D8306810F0020FF6D1BBF1000F05D088
:10493000D8F8000020F08050C8F80000A069E8B363
:10494000D9F8001001F00C0108295AD00228286873
:1049500020F0807028600FD0FEF708F90446286820
:1049600010F0007F4AD000BFFEF700F9001B0228BC
:1049700040D90320BDE8F88FFEF7F8F8064628680E
:1049800010F0007F09D000BFFEF7F0F8801B02286E
:10499000EFD8286810F0007FF6D1D4E909C3D4E934
:1049A0000701204A5E0894F82C30084394F8304000
:1049B00002EB064242EA8C11014300E01EE014487B
:1049C00041EA036141EA04710160286840F08070A7
:1049D0002860FEF7CBF80446286810F0007F0DD160
:1049E000FEF7C4F8001B0228C3D8286810F0007F27
:1049F000F6D003E0286810F0007FB5D10020BDE8B4
:104A0000F88F0120BDE8F88F0838024000380240D6
:104A100004380240743802404038024000700040C0
:104A2000703802400000FFFF4DF8044D0068002A76
:104A3000406820F0C00C2CF07F4C0CF03F004FEA97
:104A40001C43CB70CCF304224A708870CCF3423CF8
:104A500081F800C018D11C0903F00F0C04EB84038B
:104A60000CEB4303CB704FEA121C02F00F030CEB6C
:104A70008C0203EB42024A70030900F00F0203EBC1
:104A8000830002EB400088705DF8044B0020704703
:104A90004DF8044D0468002A1C4B4FF0400CA26AEC
:104AA0004A6002681269C2F30E028A6000680068F8
:104AB00000EA0303C3F305420A700CEA134CC3F384
:104AC0000620487003F07F038B7081F80CC018D16A
:104AD000140902F00F0C04EB84020CEB42020A7082
:104AE0004FEA101C00F00F020CEB8C0002EB4000B0
:104AF0004870180903F00F0200EB800002EB400041
:104B000088705DF8044B0020704700007F7F7F00B5
:104B1000002804BF0120704770B5417F0446002083
:104B200019B92077204600F059F802216177CA2090
:104B300022685321506220684162FF262068C168C4
:104B400011F0400F1AD14FF0FF31C160FEF70EF89F
:104B500005462068C06810F0400F0FD1FEF706F838
:104B6000401BB0F57A7F206804D904214662617742
:104B7000012070BDC06810F0400FEFD02068012107
:104B8000826822F0400222F4E0028260D4E900024E
:104B9000D4E9043C856843EA0C032A431A43826043
:104BA0002268E068106120682289036943EA0242B2
:104BB00002612068C26822F08002C2602068C26C74
:104BC00022F00802C2642068A269C36C1A43C2645E
:104BD000206846626177002070BD00000068A0F187
:104BE0008041B1F5205118BF70470348016841F476
:104BF0000041016070470000703802402DE9F04725
:104C00000446007F0D46012804BF0220BDE8F0875E
:104C10004FF00109022084F81C9060776878D2B1C7
:104C2000EA7800022B78A97841EA024140EA433051
:104C300041EA00072268CA21532051622168486274
:104C4000002620684FF0FF084FF0040AC16811F0F9
:104C5000400F2ED117E010F0100F03D000F0EF003E
:104C60000A306870E87801F01CFC0604687801F0EE
:104C700018FC46EA0026A87801F013FC2978304396
:104C800040EA4137D6E74FF0FF31C160FDF76EFFD4
:104C900005462068C06810F0400F0AD1FDF766FF96
:104CA000401BB0F57A7F25D82068C06810F0400F0F
:104CB000F4D0206827F0C00141602068C16821F06D
:104CC0008001C1602068816811F0200F20D1C16887
:104CD00021F0A001C160FDF749FF05462068C068CA
:104CE00010F0200F14D100BFFDF740FF401BB0F5BE
:104CF0007A7F08D92068C0F8248084F81DA001209C
:104D00002677BDE8F0872068C06810F0200FEBD050
:104D10002068C0F8248084F81D9000202677BDE824
:104D2000F08700002DE9F05F0446007F0D46012862
:104D300004BF0220BDE8F09F4FF0010A022084F872
:104D40001CA060774FF000062068806800F04000EB
:104D500072B1002808BF2E7368782A782B7BA97857
:104D6000000241EA024140EA034041EA000812E041
:104D7000002808BF2E73287801F093FB0704687899
:104D800001F08FFB47EA0027A87801F08AFB297B16
:104D9000384340EA01482268CA2153205162216801
:104DA00048624FF0FF0920684FF0040BC16811F012
:104DB000400F16D14FF0FF31C160FDF7D7FE074617
:104DC0002068C06810F0400F0BD100BFFDF7CEFE89
:104DD000C01BB0F57A7F31D82068C06810F0400F52
:104DE000F4D02168214808EA000008602068816842
:104DF00021F4802181602068D5E904128368114381
:104E0000194381602068C16821F08001C160206879
:104E1000816811F0200F1FD1C16821F0A001C1608D
:104E2000FDF7A4FE05462068C06810F0200F13D1DE
:104E3000FDF79CFE401BB0F57A7F08D92068C0F8CA
:104E4000249084F81DB001202677BDE8F09F2068EB
:104E5000C06810F0200FEBD02068C0F8249084F8D0
:104E60001DA000202677BDE8F09F00007F7F7F0017
:104E700004284FF0E02001690CBF41F0040121F04B
:104E80000401016170477047401EB0F1807F24BF6C
:104E9000012070474FF0E0214861F020034A82F87A
:104EA000140D0020072288610A6170470FE000E0BE
:104EB00010B5FFF7E8FF10BD7047704730B490F8A9
:104EC0003C20012A02BF022030BC7047012280F83A
:104ED0003C2002685368A2F1804CBCF5803CD2F8BB
:104EE00008C01CBFA2F18044B4F5823403D14C68E1
:104EF00023F4700323430C688D6823F070032CF0B7
:104F000080014FF0000C23435360026829439160F5
:104F100080F83CC0604630BC7047002804BF0120C8
:104F2000704710B5044690F83D0028B9002084F879
:104F30003C00204600F00CF8022084F83D00206878
:104F4000211D01F041FC012084F83D00002010BD2E
:104F500008B501682348A1F18042B2F540621CD037
:104F6000A1F18042B2F5805229D0A1F18042B2F580
:104F7000A05218BF08BD016841F02001016000681F
:104F80000022052100F0200000903720FEF710FFDE
:104F9000BDE808403720FEF7FFBE016841F0080178
:104FA000016000680022062100F008000090322015
:104FB000FEF7FEFEBDE808403220FEF7EDBE0168B8
:104FC00041F01001016000680022062100F010008D
:104FD00000903620FEF7ECFEBDE808403620FEF7D4
:104FE000DBBE0000403802400168CA6842F001029E
:104FF000CA600068016841F001010160002070474B
:10500000016841F21112CB6823F00103CB60006804
:10501000016A114207D1016A9210114203D101685D
:1050200021F0010101600020704790F83C20012A26
:105030000DBF0220012380F83C30704770B402227B
:1050400080F83D20D0F800C0DCF8082022F077027C
:1050500022F4803222F47F42CCF808200A68502AD9
:1050600049D00CDC202A7DD004DC002A7BD0102A19
:105070007AD0BCE0302A78D0402A7CD0B7E0602AD1
:1050800056D0702A0DD0B2F5805F03D0B2F5005F24
:105090001ED0ACE001688A6822F0070222F4803258
:1050A00044E00268D1E9014CC968956844EA0121ED
:1050B00041EA0C0C25F47F414CEA01019160016842
:1050C0008A6822F0770222F4803242F077022DE0E3
:1050D0000268D1E9014CC968956844EA012141EAB6
:1050E0000C0C25F47F414CEA0101916001688A684B
:1050F00042F480421AE00268D1F804C0C968146A18
:10510000156A25F00106166224F00A05946945EA3D
:105110000C0C24F0F00444EA01119161C2F820C0A3
:1051200001688A6822F0700242F057028A605EE0ED
:105130000268D1F804C0C968146A24F0100414622B
:105140009469166A24F4704526F0A00445EA0131FA
:10515000916144EA0C1CC2F820C001688A6822F000
:10516000700204E034E023E02AE039E003E042F09A
:1051700067028A603BE00268D1F804C0C968146A1B
:10518000156A25F00106166224F00A05946945EABD
:105190000C0C24F0F00444EA01119161C2F820C023
:1051A00001688A6822F0700242F047028A601EE0BD
:1051B00001688A6822F0700242F007028A6016E0F5
:1051C00001688A6822F0700242F017028A600EE0DD
:1051D00001688A6822F0700242F027028A6006E0C5
:1051E00001688A6822F0700242F037028A6000216A
:1051F00080F83D3080F83C10084670BC704770471E
:1052000070B5044600680025016911F0020F1CBF4B
:10521000C16811F0020F13D001216FF00202026188
:1052200021772068806910F0030F204602D0FFF735
:10523000E6FF04E000F0A6F8204600F0A4F8257789
:105240002068016911F0040F1CBFC16811F0040F40
:1052500013D002216FF00402026121772068806977
:1052600010F4407F204602D0FFF7C9FF04E000F0B1
:1052700089F8204600F087F825772068016911F049
:10528000080F1CBFC16811F0080F13D004216FF084
:105290000802026121772068C06910F0030F2046E0
:1052A00002D0FFF7ACFF04E000F06CF8204600F0FD
:1052B0006AF825772068016911F0100F1CBFC168DA
:1052C00011F0100F13D008216FF010020261217746
:1052D0002068C06910F4407F204602D0FFF78FFF9E
:1052E00004E000F04FF8204600F04DF825772068E4
:1052F000016911F0010F1CBFC16811F0010F05D049
:105300006FF001010161204600F03EF820686FF067
:105310008005016911F0800F1CBFC16811F0800F7A
:1053200003D005612046FFF7C7FD2068016911F42D
:10533000807F1CBFC16811F0800F03D0056120463B
:10534000FFF7BAFD2068016911F0400F1CBFC1686A
:1053500011F0400F05D06FF040010161204600F0D0
:1053600014F82068016911F0200F1ABFC16811F00C
:10537000200F70BD6FF0200101612046BDE8704034
:10538000FFF79BBD7047704770477047FEE700000E
:105390000148FEF756B90000084B00200148FEF70F
:1053A0008CB90000084B002010B5806B002102680A
:1053B000536843F400435360826B1165C26B1165FF
:1053C00090F84110602902D0FEF77FF910BD20212E
:1053D00080F84110FEF733F910BD11F0010F4FF0C6
:1053E00028034FF0000206D090F841C0422233EA71
:1053F0000C0C18BFF22211F0020F08D090F841C037
:1054000042F0440233EA0C0318BF42F0B00211F03C
:10541000040F18BF42F0B80211238B4308BF42F0BB
:105420009002122333EA010104BF42F0200141F04F
:10543000400200680168914301600020704700004D
:1054400070B5044636480025202684F84250E062B4
:105450006585606C0843606494F8410028281FBF8C
:1054600094F84100292894F841002A2825D04FF0CB
:1054700007012046FFF7B1FF94F84100602818BFEC
:1054800084F841602563656320682649026812F448
:10549000804F02681CD022F480420260A06B01653C
:1054A00084F84050A06BFCF77EFA002808BF70BD5E
:1054B000A06B016DBDE87040084703212046FFF74F
:1054C0008CFF19492820616384F841002563DBE7DC
:1054D00012F4004F12D0026822F400420260E06B26
:1054E000016584F84050E06BFCF75DFA002808BFC6
:1054F00070BDE06B016DBDE87040084794F8410055
:10550000602805D0204684F84050FEF7DEF870BDD4
:1055100084F84160204684F84050FEF790F870BD52
:105520000000FFFFA9530008955600082DE9F0413F
:105530000F460168202604460820CE612168C86114
:1055400007212046FFF749FF20685049426842F48E
:105550000042426020684268114041602068002596
:10556000816911F0020F18BF85622068816911F00E
:10557000010F03D1816941F0010181612068016857
:1055800011F4804F04BF016811F4004F08D094F863
:10559000411021290CBFA16BE16B09684968618545
:1055A000618D19B1616C41F00401616417F0040F61
:1055B0000FD0416A606A421C62620170208D40B166
:1055C000618D401E2085491E6185606C40F004009D
:1055D0006064DFF8BC80256384F84250606C6563CA
:1055E00098B3616C2046FFF72BFF94F84100282800
:1055F00018BFBDE8F08117F0040FC4F82C802563B4
:1056000084F8416084F84250656310D02168606A74
:10561000496A421C62620170208D40B1618D401E5A
:105620002085491E6185606C40F00400606407219C
:105630002046FFF7D2FE21681020C861204684F87A
:105640004050FEF79DF8BDE8F081FFE7E06A10F5F5
:10565000803F0AD0C4F82C8084F84160204684F84A
:105660004050FEF78DF8BDE8F08194F8410084F8D1
:1056700041602228204684F8405003D0FEF7B9FA52
:10568000BDE8F081FEF7B4FABDE8F08100E800FE65
:105690000000FFFF2DE9F047044690F84000174650
:1056A0000E46012804BF0220BDE8F08716F0100F57
:1056B0004FF001014FF028004FF022024FF000059B
:1056C00084F840104FF0210118BF17F0100F76D06A
:1056D000638D4FF0100843B12068C0F81C80606CE7
:1056E00040F00400606400F031B9E36AB3F1007F78
:1056F00019BFE36AB3F1007F94F84130282B0CD036
:10570000E36A13F5803F03D094F84130292B34D05D
:105710002068C0F81C8000F019B9944816F0040FF6
:105720004FF02001E062256384F8411084F8425074
:10573000656313D02168606A496A00F101036362FE
:105740000170208D50B1618DA0F101002085A1F183
:1057500001016185606C40F0040161644FF0070154
:105760002046FFF73AFE2068C0F81C80204684F8E7
:105770004050FEF705F800F0E9B82368C3F81C8034
:105780002368D3F818C01CF0020F18BF9D6223686D
:10579000D3F818C01CF0010F05D1D3F818C04CF095
:1057A000010CC3F818C084F8425094F84130292BFA
:1057B0007AD094F841102A2977D0C7E0FFE716F095
:1057C000040F18BF17F0040F26D0638D93B1D4F8DF
:1057D00000C0636ADCF824C003F10108C4F8248027
:1057E00083F800C0238DA3F101032385638DA3F10A
:1057F00001036385638D002B55D1E36A13F5803F68
:1058000051D084F8425094F84130292B4CD094F870
:1058100041102A2949D099E016F0080F18BF17F057
:10582000080F4FD094F841204FF0080190432068B2
:105830001CBFC16184F8405035D1D4F80C80D0F839
:105840001890836982684FF0FE0CC068B8F1020FAF
:10585000C9F3004A0CEA134800F0FE09C2F309023A
:105860000BD004212046FFF7B8FD204642465146A2
:1058700084F84050FDF7E4FE68E0062008F00603D7
:1058800000EAD210834211D1A06C431CA364A06C27
:1058900002285BD1A5642068C1612046514684F886
:1058A0004050FDF7CDFE51E036E043E004212046B4
:1058B000FFF793FD20464A46514684F84050FDF7D5
:1058C000BFFE43E016F0020F18BF17F0020F3DD0E5
:1058D000638D7BB1606A00F101016162216800782B
:1058E0008862608DA0F101006085208DA0F101002B
:1058F00020852BE0E36AB3F1807F1CBFE36A002BB5
:1059000024D184F8425094F84130292B04D094F8E3
:1059100041102A290ED019E084F841002046216365
:105920004FF00101FFF759FD204684F84050FEF783
:1059300060F90BE084F84100204622630221FFF762
:105940004CFD204684F84050FEF752F916F0200F27
:1059500018BF17F0200F03D031462046FFF7E6FDB1
:10596000002084F84050BDE8F08700000000FFFFF1
:105970002DE9F041044600681D461646DDF8188002
:105980000F46806931EA00000CBF01200020B042C0
:105990001ED100BFB5F1FF3F11D02DB1FDF7E6F8E4
:1059A000A0EB0800A8420AD90020202184F8411069
:1059B00084F8420084F840000320BDE8F0812068AC
:1059C000806937EA00000CBF01200020B042E1D01E
:1059D0000020BDE8F08100002DE9F0410446006898
:1059E00016460D46806910F0200F04BF4FF02008C6
:1059F000002755D12068806910F0100F38D020683A
:105A0000806910F0200F16D1B5F1FF3F0ED025B1FF
:105A1000FDF7ACF8801BA84208D984F8418084F8CF
:105A20004270012084F84070BDE8F08120688069F0
:105A300010F0200FE8D021681020C8612068C0F85D
:105A40001C802068816911F0020F18BF87622068EE
:105A5000816911F0010F03D1816941F00101816178
:105A600020680421104A43681A4042606164D4E708
:105A700025B1FDF77BF8801BA8420CD9606C84F837
:105A8000407040F02000606484F8418084F84270E7
:105A90000320BDE8F0812068806910F0200FA9D0B4
:105AA0000020BDE8F081000000E800FE2DE9F04193
:105AB0000446006816460D46806910F0020F04BFC8
:105AC0004FF02008002758D12068806910F0100F8F
:105AD00038D02068806910F0200F16D1B5F1FF3F53
